{
	"contracts/multicall3.sol": {
		"Multicall3": {
			"abi": [
				{
					"inputs": [
						{
							"components": [
								{
									"internalType": "address",
									"name": "target",
									"type": "address"
								},
								{
									"internalType": "bytes",
									"name": "callData",
									"type": "bytes"
								}
							],
							"internalType": "struct Multicall3.Call[]",
							"name": "calls",
							"type": "tuple[]"
						}
					],
					"name": "aggregate",
					"outputs": [
						{
							"internalType": "uint256",
							"name": "blockNumber",
							"type": "uint256"
						},
						{
							"internalType": "bytes[]",
							"name": "returnData",
							"type": "bytes[]"
						}
					],
					"stateMutability": "payable",
					"type": "function"
				},
				{
					"inputs": [
						{
							"components": [
								{
									"internalType": "address",
									"name": "target",
									"type": "address"
								},
								{
									"internalType": "bool",
									"name": "allowFailure",
									"type": "bool"
								},
								{
									"internalType": "bytes",
									"name": "callData",
									"type": "bytes"
								}
							],
							"internalType": "struct Multicall3.Call3[]",
							"name": "calls",
							"type": "tuple[]"
						}
					],
					"name": "aggregate3",
					"outputs": [
						{
							"components": [
								{
									"internalType": "bool",
									"name": "success",
									"type": "bool"
								},
								{
									"internalType": "bytes",
									"name": "returnData",
									"type": "bytes"
								}
							],
							"internalType": "struct Multicall3.Result[]",
							"name": "returnData",
							"type": "tuple[]"
						}
					],
					"stateMutability": "payable",
					"type": "function"
				},
				{
					"inputs": [
						{
							"components": [
								{
									"internalType": "address",
									"name": "target",
									"type": "address"
								},
								{
									"internalType": "bool",
									"name": "allowFailure",
									"type": "bool"
								},
								{
									"internalType": "uint256",
									"name": "value",
									"type": "uint256"
								},
								{
									"internalType": "bytes",
									"name": "callData",
									"type": "bytes"
								}
							],
							"internalType": "struct Multicall3.Call3Value[]",
							"name": "calls",
							"type": "tuple[]"
						}
					],
					"name": "aggregate3Value",
					"outputs": [
						{
							"components": [
								{
									"internalType": "bool",
									"name": "success",
									"type": "bool"
								},
								{
									"internalType": "bytes",
									"name": "returnData",
									"type": "bytes"
								}
							],
							"internalType": "struct Multicall3.Result[]",
							"name": "returnData",
							"type": "tuple[]"
						}
					],
					"stateMutability": "payable",
					"type": "function"
				},
				{
					"inputs": [
						{
							"components": [
								{
									"internalType": "address",
									"name": "target",
									"type": "address"
								},
								{
									"internalType": "bytes",
									"name": "callData",
									"type": "bytes"
								}
							],
							"internalType": "struct Multicall3.Call[]",
							"name": "calls",
							"type": "tuple[]"
						}
					],
					"name": "blockAndAggregate",
					"outputs": [
						{
							"internalType": "uint256",
							"name": "blockNumber",
							"type": "uint256"
						},
						{
							"internalType": "bytes32",
							"name": "blockHash",
							"type": "bytes32"
						},
						{
							"components": [
								{
									"internalType": "bool",
									"name": "success",
									"type": "bool"
								},
								{
									"internalType": "bytes",
									"name": "returnData",
									"type": "bytes"
								}
							],
							"internalType": "struct Multicall3.Result[]",
							"name": "returnData",
							"type": "tuple[]"
						}
					],
					"stateMutability": "payable",
					"type": "function"
				},
				{
					"inputs": [],
					"name": "getBasefee",
					"outputs": [
						{
							"internalType": "uint256",
							"name": "basefee",
							"type": "uint256"
						}
					],
					"stateMutability": "view",
					"type": "function"
				},
				{
					"inputs": [
						{
							"internalType": "uint256",
							"name": "blockNumber",
							"type": "uint256"
						}
					],
					"name": "getBlockHash",
					"outputs": [
						{
							"internalType": "bytes32",
							"name": "blockHash",
							"type": "bytes32"
						}
					],
					"stateMutability": "view",
					"type": "function"
				},
				{
					"inputs": [],
					"name": "getBlockNumber",
					"outputs": [
						{
							"internalType": "uint256",
							"name": "blockNumber",
							"type": "uint256"
						}
					],
					"stateMutability": "view",
					"type": "function"
				},
				{
					"inputs": [],
					"name": "getChainId",
					"outputs": [
						{
							"internalType": "uint256",
							"name": "chainid",
							"type": "uint256"
						}
					],
					"stateMutability": "view",
					"type": "function"
				},
				{
					"inputs": [],
					"name": "getCurrentBlockCoinbase",
					"outputs": [
						{
							"internalType": "address",
							"name": "coinbase",
							"type": "address"
						}
					],
					"stateMutability": "view",
					"type": "function"
				},
				{
					"inputs": [],
					"name": "getCurrentBlockDifficulty",
					"outputs": [
						{
							"internalType": "uint256",
							"name": "difficulty",
							"type": "uint256"
						}
					],
					"stateMutability": "view",
					"type": "function"
				},
				{
					"inputs": [],
					"name": "getCurrentBlockGasLimit",
					"outputs": [
						{
							"internalType": "uint256",
							"name": "gaslimit",
							"type": "uint256"
						}
					],
					"stateMutability": "view",
					"type": "function"
				},
				{
					"inputs": [],
					"name": "getCurrentBlockTimestamp",
					"outputs": [
						{
							"internalType": "uint256",
							"name": "timestamp",
							"type": "uint256"
						}
					],
					"stateMutability": "view",
					"type": "function"
				},
				{
					"inputs": [
						{
							"internalType": "address",
							"name": "addr",
							"type": "address"
						}
					],
					"name": "getEthBalance",
					"outputs": [
						{
							"internalType": "uint256",
							"name": "balance",
							"type": "uint256"
						}
					],
					"stateMutability": "view",
					"type": "function"
				},
				{
					"inputs": [],
					"name": "getLastBlockHash",
					"outputs": [
						{
							"internalType": "bytes32",
							"name": "blockHash",
							"type": "bytes32"
						}
					],
					"stateMutability": "view",
					"type": "function"
				},
				{
					"inputs": [
						{
							"internalType": "bool",
							"name": "requireSuccess",
							"type": "bool"
						},
						{
							"components": [
								{
									"internalType": "address",
									"name": "target",
									"type": "address"
								},
								{
									"internalType": "bytes",
									"name": "callData",
									"type": "bytes"
								}
							],
							"internalType": "struct Multicall3.Call[]",
							"name": "calls",
							"type": "tuple[]"
						}
					],
					"name": "tryAggregate",
					"outputs": [
						{
							"components": [
								{
									"internalType": "bool",
									"name": "success",
									"type": "bool"
								},
								{
									"internalType": "bytes",
									"name": "returnData",
									"type": "bytes"
								}
							],
							"internalType": "struct Multicall3.Result[]",
							"name": "returnData",
							"type": "tuple[]"
						}
					],
					"stateMutability": "payable",
					"type": "function"
				},
				{
					"inputs": [
						{
							"internalType": "bool",
							"name": "requireSuccess",
							"type": "bool"
						},
						{
							"components": [
								{
									"internalType": "address",
									"name": "target",
									"type": "address"
								},
								{
									"internalType": "bytes",
									"name": "callData",
									"type": "bytes"
								}
							],
							"internalType": "struct Multicall3.Call[]",
							"name": "calls",
							"type": "tuple[]"
						}
					],
					"name": "tryBlockAndAggregate",
					"outputs": [
						{
							"internalType": "uint256",
							"name": "blockNumber",
							"type": "uint256"
						},
						{
							"internalType": "bytes32",
							"name": "blockHash",
							"type": "bytes32"
						},
						{
							"components": [
								{
									"internalType": "bool",
									"name": "success",
									"type": "bool"
								},
								{
									"internalType": "bytes",
									"name": "returnData",
									"type": "bytes"
								}
							],
							"internalType": "struct Multicall3.Result[]",
							"name": "returnData",
							"type": "tuple[]"
						}
					],
					"stateMutability": "payable",
					"type": "function"
				}
			],
			"devdoc": {
				"author": "Michael Elliot <mike@makerdao.com>Joshua Levine <joshua@makerdao.com>Nick Johnson <arachnid@notdot.net>Andreas Bigger <andreas@nascent.xyz>Matt Solomon <matt@mattsolomon.dev>",
				"details": "Multicall & Multicall2 backwards-compatibleAggregate methods are marked `payable` to save 24 gas per call",
				"kind": "dev",
				"methods": {
					"aggregate((address,bytes)[])": {
						"params": {
							"calls": "An array of Call structs"
						},
						"returns": {
							"blockNumber": "The block number where the calls were executed",
							"returnData": "An array of bytes containing the responses"
						}
					},
					"aggregate3((address,bool,bytes)[])": {
						"params": {
							"calls": "An array of Call3 structs"
						},
						"returns": {
							"returnData": "An array of Result structs"
						}
					},
					"aggregate3Value((address,bool,uint256,bytes)[])": {
						"params": {
							"calls": "An array of Call3Value structs"
						},
						"returns": {
							"returnData": "An array of Result structs"
						}
					},
					"blockAndAggregate((address,bytes)[])": {
						"params": {
							"calls": "An array of Call structs"
						},
						"returns": {
							"blockHash": "The hash of the block where the calls were executed",
							"blockNumber": "The block number where the calls were executed",
							"returnData": "An array of Result structs"
						}
					},
					"getBlockHash(uint256)": {
						"params": {
							"blockNumber": "The block number"
						}
					},
					"tryAggregate(bool,(address,bytes)[])": {
						"params": {
							"calls": "An array of Call structs",
							"requireSuccess": "If true, require all calls to succeed"
						},
						"returns": {
							"returnData": "An array of Result structs"
						}
					},
					"tryBlockAndAggregate(bool,(address,bytes)[])": {
						"params": {
							"calls": "An array of Call structs"
						},
						"returns": {
							"blockHash": "The hash of the block where the calls were executed",
							"blockNumber": "The block number where the calls were executed",
							"returnData": "An array of Result structs"
						}
					}
				},
				"title": "Multicall3",
				"version": 1
			},
			"evm": {
				"assembly": "    /* \"contracts/multicall3.sol\":514:9824  contract Multicall3 {... */\n  mstore(0x40, 0x80)\n  callvalue\n  dup1\n  iszero\n  tag_1\n  jumpi\n  0x00\n  dup1\n  revert\ntag_1:\n  pop\n  dataSize(sub_0)\n  dup1\n  dataOffset(sub_0)\n  0x00\n  codecopy\n  0x00\n  return\nstop\n\nsub_0: assembly {\n        /* \"contracts/multicall3.sol\":514:9824  contract Multicall3 {... */\n      mstore(0x40, 0x80)\n      jumpi(tag_1, lt(calldatasize, 0x04))\n      shr(0xe0, calldataload(0x00))\n      dup1\n      0x4d2301cc\n      gt\n      tag_18\n      jumpi\n      dup1\n      0xa8b0574e\n      gt\n      tag_19\n      jumpi\n      dup1\n      0xa8b0574e\n      eq\n      tag_14\n      jumpi\n      dup1\n      0xbce38bd7\n      eq\n      tag_15\n      jumpi\n      dup1\n      0xc3077fa9\n      eq\n      tag_16\n      jumpi\n      dup1\n      0xee82ac5e\n      eq\n      tag_17\n      jumpi\n      0x00\n      dup1\n      revert\n    tag_19:\n      dup1\n      0x4d2301cc\n      eq\n      tag_10\n      jumpi\n      dup1\n      0x72425d9d\n      eq\n      tag_11\n      jumpi\n      dup1\n      0x82ad56cb\n      eq\n      tag_12\n      jumpi\n      dup1\n      0x86d516e8\n      eq\n      tag_13\n      jumpi\n      0x00\n      dup1\n      revert\n    tag_18:\n      dup1\n      0x3408e470\n      gt\n      tag_20\n      jumpi\n      dup1\n      0x3408e470\n      eq\n      tag_6\n      jumpi\n      dup1\n      0x399542e9\n      eq\n      tag_7\n      jumpi\n      dup1\n      0x3e64a696\n      eq\n      tag_8\n      jumpi\n      dup1\n      0x42cbb15c\n      eq\n      tag_9\n      jumpi\n      0x00\n      dup1\n      revert\n    tag_20:\n      dup1\n      0x0f28c97d\n      eq\n      tag_2\n      jumpi\n      dup1\n      0x174dea71\n      eq\n      tag_3\n      jumpi\n      dup1\n      0x252dba42\n      eq\n      tag_4\n      jumpi\n      dup1\n      0x27e86d6e\n      eq\n      tag_5\n      jumpi\n    tag_1:\n      0x00\n      dup1\n      revert\n        /* \"contracts/multicall3.sol\":8885:9007  function getCurrentBlockTimestamp() public view returns (uint256 timestamp) {... */\n    tag_2:\n      callvalue\n      dup1\n      iszero\n      tag_21\n      jumpi\n      0x00\n      dup1\n      revert\n    tag_21:\n      pop\n        /* \"contracts/multicall3.sol\":8984:8999  block.timestamp */\n      timestamp\n        /* \"contracts/multicall3.sol\":8885:9007  function getCurrentBlockTimestamp() public view returns (uint256 timestamp) {... */\n    tag_22:\n      mload(0x40)\n        /* \"#utility.yul\":160:185   */\n      swap1\n      dup2\n      mstore\n        /* \"#utility.yul\":148:150   */\n      0x20\n        /* \"#utility.yul\":133:151   */\n      add\n        /* \"contracts/multicall3.sol\":8885:9007  function getCurrentBlockTimestamp() public view returns (uint256 timestamp) {... */\n    tag_24:\n      mload(0x40)\n      dup1\n      swap2\n      sub\n      swap1\n      return\n        /* \"contracts/multicall3.sol\":5899:7892  function aggregate3Value(Call3Value[] calldata calls) public payable returns (Result[] memory returnData) {... */\n    tag_3:\n      tag_26\n      tag_27\n      calldatasize\n      0x04\n      tag_28\n      jump\t// in\n    tag_27:\n      tag_29\n      jump\t// in\n    tag_26:\n      mload(0x40)\n      tag_24\n      swap2\n      swap1\n      tag_31\n      jump\t// in\n        /* \"contracts/multicall3.sol\":1206:1752  function aggregate(Call[] calldata calls) public payable returns (uint256 blockNumber, bytes[] memory returnData) {... */\n    tag_4:\n      tag_32\n      tag_33\n      calldatasize\n      0x04\n      tag_28\n      jump\t// in\n    tag_33:\n      tag_35\n      jump\t// in\n    tag_32:\n      mload(0x40)\n      tag_24\n      swap3\n      swap2\n      swap1\n      tag_37\n      jump\t// in\n        /* \"contracts/multicall3.sol\":9259:9421  function getLastBlockHash() public view returns (bytes32 blockHash) {... */\n    tag_5:\n      callvalue\n      dup1\n      iszero\n      tag_38\n      jumpi\n      0x00\n      dup1\n      revert\n    tag_38:\n      pop\n        /* \"contracts/multicall3.sol\":9385:9397  block.number */\n      number\n        /* \"contracts/multicall3.sol\":9385:9401  block.number - 1 */\n      0xffffffffffffffffffffffffffffffffffffffffffffffffffffffffffffffff\n      add\n        /* \"contracts/multicall3.sol\":9375:9402  blockhash(block.number - 1) */\n      blockhash\n        /* \"contracts/multicall3.sol\":9259:9421  function getLastBlockHash() public view returns (bytes32 blockHash) {... */\n      jump(tag_22)\n        /* \"contracts/multicall3.sol\":9719:9821  function getChainId() public view returns (uint256 chainid) {... */\n    tag_6:\n      callvalue\n      dup1\n      iszero\n      tag_43\n      jumpi\n      0x00\n      dup1\n      revert\n    tag_43:\n      pop\n        /* \"contracts/multicall3.sol\":9800:9813  block.chainid */\n      chainid\n        /* \"contracts/multicall3.sol\":9719:9821  function getChainId() public view returns (uint256 chainid) {... */\n      jump(tag_22)\n        /* \"contracts/multicall3.sol\":3010:3326  function tryBlockAndAggregate(bool requireSuccess, Call[] calldata calls) public payable returns (uint256 blockNumber, bytes32 blockHash, Result[] memory returnData) {... */\n    tag_7:\n      tag_47\n      tag_48\n      calldatasize\n      0x04\n      tag_49\n      jump\t// in\n    tag_48:\n      tag_50\n      jump\t// in\n    tag_47:\n      mload(0x40)\n      tag_24\n      swap4\n      swap3\n      swap2\n      swap1\n      tag_52\n      jump\t// in\n        /* \"contracts/multicall3.sol\":9571:9673  function getBasefee() public view returns (uint256 basefee) {... */\n    tag_8:\n      callvalue\n      dup1\n      iszero\n      tag_53\n      jumpi\n      0x00\n      dup1\n      revert\n    tag_53:\n      pop\n        /* \"contracts/multicall3.sol\":9652:9665  block.basefee */\n      basefee\n        /* \"contracts/multicall3.sol\":9571:9673  function getBasefee() public view returns (uint256 basefee) {... */\n      jump(tag_22)\n        /* \"contracts/multicall3.sol\":8198:8311  function getBlockNumber() public view returns (uint256 blockNumber) {... */\n    tag_9:\n      callvalue\n      dup1\n      iszero\n      tag_57\n      jumpi\n      0x00\n      dup1\n      revert\n    tag_57:\n      pop\n        /* \"contracts/multicall3.sol\":8291:8303  block.number */\n      number\n        /* \"contracts/multicall3.sol\":8198:8311  function getBlockNumber() public view returns (uint256 blockNumber) {... */\n      jump(tag_22)\n        /* \"contracts/multicall3.sol\":9077:9193  function getEthBalance(address addr) public view returns (uint256 balance) {... */\n    tag_10:\n      callvalue\n      dup1\n      iszero\n      tag_61\n      jumpi\n      0x00\n      dup1\n      revert\n    tag_61:\n      pop\n      tag_22\n      tag_63\n      calldatasize\n      0x04\n      tag_64\n      jump\t// in\n    tag_63:\n        /* \"contracts/multicall3.sol\":9173:9185  addr.balance */\n      0xffffffffffffffffffffffffffffffffffffffff\n      and\n      balance\n      swap1\n        /* \"contracts/multicall3.sol\":9077:9193  function getEthBalance(address addr) public view returns (uint256 balance) {... */\n      jump\n        /* \"contracts/multicall3.sol\":8535:8661  function getCurrentBlockDifficulty() public view returns (uint256 difficulty) {... */\n    tag_11:\n      callvalue\n      dup1\n      iszero\n      tag_67\n      jumpi\n      0x00\n      dup1\n      revert\n    tag_67:\n      pop\n        /* \"contracts/multicall3.sol\":8637:8653  block.difficulty */\n      difficulty\n        /* \"contracts/multicall3.sol\":8535:8661  function getCurrentBlockDifficulty() public view returns (uint256 difficulty) {... */\n      jump(tag_22)\n        /* \"contracts/multicall3.sol\":4136:5655  function aggregate3(Call3[] calldata calls) public payable returns (Result[] memory returnData) {... */\n    tag_12:\n      tag_26\n      tag_72\n      calldatasize\n      0x04\n      tag_28\n      jump\t// in\n    tag_72:\n      tag_74\n      jump\t// in\n        /* \"contracts/multicall3.sol\":8714:8832  function getCurrentBlockGasLimit() public view returns (uint256 gaslimit) {... */\n    tag_13:\n      callvalue\n      dup1\n      iszero\n      tag_76\n      jumpi\n      0x00\n      dup1\n      revert\n    tag_76:\n      pop\n        /* \"contracts/multicall3.sol\":8810:8824  block.gaslimit */\n      gaslimit\n        /* \"contracts/multicall3.sol\":8714:8832  function getCurrentBlockGasLimit() public view returns (uint256 gaslimit) {... */\n      jump(tag_22)\n        /* \"contracts/multicall3.sol\":8363:8481  function getCurrentBlockCoinbase() public view returns (address coinbase) {... */\n    tag_14:\n      callvalue\n      dup1\n      iszero\n      tag_80\n      jumpi\n      0x00\n      dup1\n      revert\n    tag_80:\n      pop\n      mload(0x40)\n        /* \"contracts/multicall3.sol\":8459:8473  block.coinbase */\n      coinbase\n        /* \"#utility.yul\":6445:6519   */\n      dup2\n      mstore\n        /* \"#utility.yul\":6433:6435   */\n      0x20\n        /* \"#utility.yul\":6418:6436   */\n      add\n        /* \"contracts/multicall3.sol\":8363:8481  function getCurrentBlockCoinbase() public view returns (address coinbase) {... */\n      tag_24\n        /* \"#utility.yul\":6299:6525   */\n      jump\n        /* \"contracts/multicall3.sol\":2044:2620  function tryAggregate(bool requireSuccess, Call[] calldata calls) public payable returns (Result[] memory returnData) {... */\n    tag_15:\n      tag_26\n      tag_86\n      calldatasize\n      0x04\n      tag_49\n      jump\t// in\n    tag_86:\n      tag_87\n      jump\t// in\n        /* \"contracts/multicall3.sol\":3716:3949  function blockAndAggregate(Call[] calldata calls) public payable returns (uint256 blockNumber, bytes32 blockHash, Result[] memory returnData) {... */\n    tag_16:\n      tag_47\n      tag_90\n      calldatasize\n      0x04\n      tag_28\n      jump\t// in\n    tag_90:\n      tag_91\n      jump\t// in\n        /* \"contracts/multicall3.sol\":8012:8148  function getBlockHash(uint256 blockNumber) public view returns (bytes32 blockHash) {... */\n    tag_17:\n      callvalue\n      dup1\n      iszero\n      tag_93\n      jumpi\n      0x00\n      dup1\n      revert\n    tag_93:\n      pop\n      tag_22\n      tag_95\n      calldatasize\n      0x04\n      tag_96\n      jump\t// in\n    tag_95:\n        /* \"contracts/multicall3.sol\":8118:8140  blockhash(blockNumber) */\n      blockhash\n      swap1\n        /* \"contracts/multicall3.sol\":8012:8148  function getBlockHash(uint256 blockNumber) public view returns (bytes32 blockHash) {... */\n      jump\n        /* \"contracts/multicall3.sol\":5899:7892  function aggregate3Value(Call3Value[] calldata calls) public payable returns (Result[] memory returnData) {... */\n    tag_29:\n        /* \"contracts/multicall3.sol\":5977:6003  Result[] memory returnData */\n      0x60\n        /* \"contracts/multicall3.sol\":6016:6038  uint256 valAccumulator */\n      0x00\n        /* \"contracts/multicall3.sol\":6066:6071  calls */\n      dup3\n      dup1\n        /* \"contracts/multicall3.sol\":6102:6122  new Result[](length) */\n      0xffffffffffffffff\n      dup2\n      gt\n      iszero\n      tag_102\n      jumpi\n      tag_102\n      tag_103\n      jump\t// in\n    tag_102:\n      mload(0x40)\n      swap1\n      dup1\n      dup3\n      mstore\n      dup1\n      0x20\n      mul\n      0x20\n      add\n      dup3\n      add\n      0x40\n      mstore\n      dup1\n      iszero\n      tag_104\n      jumpi\n      dup2\n      0x20\n      add\n    tag_105:\n      0x40\n      dup1\n      mload\n      dup1\n      dup3\n      add\n      swap1\n      swap2\n      mstore\n      0x00\n      dup2\n      mstore\n      0x60\n      0x20\n      dup3\n      add\n      mstore\n      dup2\n      mstore\n      0x20\n      add\n      swap1\n      0x01\n      swap1\n      sub\n      swap1\n      dup2\n      tag_105\n      jumpi\n      swap1\n      pop\n    tag_104:\n      pop\n        /* \"contracts/multicall3.sol\":6089:6122  returnData = new Result[](length) */\n      swap3\n      pop\n        /* \"contracts/multicall3.sol\":6133:6158  Call3Value calldata calli */\n      calldatasize\n        /* \"contracts/multicall3.sol\":6174:6183  uint256 i */\n      0x00\n        /* \"contracts/multicall3.sol\":6169:7738  for (uint256 i = 0; i < length;) {... */\n    tag_108:\n        /* \"contracts/multicall3.sol\":6193:6199  length */\n      dup3\n        /* \"contracts/multicall3.sol\":6189:6190  i */\n      dup2\n        /* \"contracts/multicall3.sol\":6189:6199  i < length */\n      lt\n        /* \"contracts/multicall3.sol\":6169:7738  for (uint256 i = 0; i < length;) {... */\n      iszero\n      tag_109\n      jumpi\n        /* \"contracts/multicall3.sol\":6217:6237  Result memory result */\n      0x00\n        /* \"contracts/multicall3.sol\":6240:6250  returnData */\n      dup6\n        /* \"contracts/multicall3.sol\":6251:6252  i */\n      dup3\n        /* \"contracts/multicall3.sol\":6240:6253  returnData[i] */\n      dup2\n      mload\n      dup2\n      lt\n      tag_112\n      jumpi\n      tag_112\n      tag_113\n      jump\t// in\n    tag_112:\n      0x20\n      mul\n      0x20\n      add\n      add\n      mload\n        /* \"contracts/multicall3.sol\":6217:6253  Result memory result = returnData[i] */\n      swap1\n      pop\n        /* \"contracts/multicall3.sol\":6276:6281  calls */\n      dup8\n      dup8\n        /* \"contracts/multicall3.sol\":6282:6283  i */\n      dup4\n        /* \"contracts/multicall3.sol\":6276:6284  calls[i] */\n      dup2\n      dup2\n      lt\n      tag_115\n      jumpi\n      tag_115\n      tag_113\n      jump\t// in\n    tag_115:\n      swap1\n      pop\n      0x20\n      mul\n      dup2\n      add\n      swap1\n      tag_116\n      swap2\n      swap1\n      tag_117\n      jump\t// in\n    tag_116:\n        /* \"contracts/multicall3.sol\":6313:6324  calli.value */\n      0x40\n      dup2\n      add\n      calldataload\n        /* \"contracts/multicall3.sol\":6528:6549  valAccumulator += val */\n      swap6\n      dup7\n      add\n      swap6\n        /* \"contracts/multicall3.sol\":6268:6284  calli = calls[i] */\n      swap1\n      swap4\n      pop\n        /* \"contracts/multicall3.sol\":6604:6616  calli.target */\n      tag_118\n      0x20\n      dup6\n      add\n        /* \"contracts/multicall3.sol\":6268:6284  calli = calls[i] */\n      dup6\n        /* \"contracts/multicall3.sol\":6604:6616  calli.target */\n      tag_64\n      jump\t// in\n    tag_118:\n        /* \"contracts/multicall3.sol\":6604:6621  calli.target.call */\n      0xffffffffffffffffffffffffffffffffffffffff\n      and\n        /* \"contracts/multicall3.sol\":6629:6632  val */\n      dup2\n        /* \"contracts/multicall3.sol\":6634:6648  calli.callData */\n      tag_119\n      0x60\n      dup8\n      add\n        /* \"contracts/multicall3.sol\":6634:6639  calli */\n      dup8\n        /* \"contracts/multicall3.sol\":6634:6648  calli.callData */\n      tag_120\n      jump\t// in\n    tag_119:\n        /* \"contracts/multicall3.sol\":6604:6649  calli.target.call{value: val}(calli.callData) */\n      mload(0x40)\n      tag_121\n      swap3\n      swap2\n      swap1\n      tag_122\n      jump\t// in\n    tag_121:\n      0x00\n      mload(0x40)\n      dup1\n      dup4\n      sub\n      dup2\n      dup6\n      dup8\n      gas\n      call\n      swap3\n      pop\n      pop\n      pop\n      returndatasize\n      dup1\n      0x00\n      dup2\n      eq\n      tag_125\n      jumpi\n      mload(0x40)\n      swap2\n      pop\n      and(add(returndatasize, 0x3f), not(0x1f))\n      dup3\n      add\n      0x40\n      mstore\n      returndatasize\n      dup3\n      mstore\n      returndatasize\n      0x00\n      0x20\n      dup5\n      add\n      returndatacopy\n      jump(tag_124)\n    tag_125:\n      0x60\n      swap2\n      pop\n    tag_124:\n      pop\n        /* \"contracts/multicall3.sol\":6583:6600  result.returnData */\n      0x20\n      dup1\n      dup6\n      add\n        /* \"contracts/multicall3.sol\":6566:6649  (result.success, result.returnData) = calli.target.call{value: val}(calli.callData) */\n      swap2\n      swap1\n      swap2\n      mstore\n      swap1\n      iszero\n      iszero\n      dup1\n      dup5\n      mstore\n        /* \"contracts/multicall3.sol\":6890:6906  add(calli, 0x20) */\n      swap1\n      dup6\n      add\n        /* \"contracts/multicall3.sol\":6877:6907  calldataload(add(calli, 0x20)) */\n      calldataload\n        /* \"contracts/multicall3.sol\":6874:6923  or(calldataload(add(calli, 0x20)), mload(result)) */\n      or\n        /* \"contracts/multicall3.sol\":6864:7680  if iszero(or(calldataload(add(calli, 0x20)), mload(result))) {... */\n      tag_126\n      jumpi\n        /* \"contracts/multicall3.sol\":7060:7126  0x08c379a000000000000000000000000000000000000000000000000000000000 */\n      0x08c379a000000000000000000000000000000000000000000000000000000000\n        /* \"contracts/multicall3.sol\":7054:7058  0x00 */\n      0x00\n        /* \"contracts/multicall3.sol\":7047:7127  mstore(0x00, 0x08c379a000000000000000000000000000000000000000000000000000000000) */\n      mstore\n        /* \"contracts/multicall3.sol\":7202:7268  0x0000000000000000000000000000000000000000000000000000000000000020 */\n      0x20\n        /* \"contracts/multicall3.sol\":7196:7200  0x04 */\n      0x04\n        /* \"contracts/multicall3.sol\":7189:7269  mstore(0x04, 0x0000000000000000000000000000000000000000000000000000000000000020) */\n      mstore\n        /* \"contracts/multicall3.sol\":7356:7422  0x0000000000000000000000000000000000000000000000000000000000000017 */\n      0x17\n        /* \"contracts/multicall3.sol\":7350:7354  0x24 */\n      0x24\n        /* \"contracts/multicall3.sol\":7343:7423  mstore(0x24, 0x0000000000000000000000000000000000000000000000000000000000000017) */\n      mstore\n        /* \"contracts/multicall3.sol\":7554:7620  0x4d756c746963616c6c333a2063616c6c206661696c6564000000000000000000 */\n      0x4d756c746963616c6c333a2063616c6c206661696c6564000000000000000000\n        /* \"contracts/multicall3.sol\":7548:7552  0x44 */\n      0x44\n        /* \"contracts/multicall3.sol\":7541:7621  mstore(0x44, 0x4d756c746963616c6c333a2063616c6c206661696c6564000000000000000000) */\n      mstore\n        /* \"contracts/multicall3.sol\":7656:7660  0x84 */\n      0x84\n        /* \"contracts/multicall3.sol\":7650:7654  0x00 */\n      0x00\n        /* \"contracts/multicall3.sol\":7643:7661  revert(0x00, 0x84) */\n      revert\n        /* \"contracts/multicall3.sol\":6864:7680  if iszero(or(calldataload(add(calli, 0x20)), mload(result))) {... */\n    tag_126:\n      pop\n      pop\n        /* \"contracts/multicall3.sol\":7721:7724  ++i */\n      0x01\n      add\n        /* \"contracts/multicall3.sol\":6169:7738  for (uint256 i = 0; i < length;) {... */\n      jump(tag_108)\n    tag_109:\n      pop\n        /* \"contracts/multicall3.sol\":7839:7853  valAccumulator */\n      dup3\n        /* \"contracts/multicall3.sol\":7826:7835  msg.value */\n      callvalue\n        /* \"contracts/multicall3.sol\":7826:7853  msg.value == valAccumulator */\n      eq\n        /* \"contracts/multicall3.sol\":7818:7884  require(msg.value == valAccumulator, \"Multicall3: value mismatch\") */\n      tag_127\n      jumpi\n      mload(0x40)\n      0x08c379a000000000000000000000000000000000000000000000000000000000\n      dup2\n      mstore\n        /* \"#utility.yul\":8545:8547   */\n      0x20\n        /* \"contracts/multicall3.sol\":7818:7884  require(msg.value == valAccumulator, \"Multicall3: value mismatch\") */\n      0x04\n      dup3\n      add\n        /* \"#utility.yul\":8527:8548   */\n      mstore\n        /* \"#utility.yul\":8584:8586   */\n      0x1a\n        /* \"#utility.yul\":8564:8582   */\n      0x24\n      dup3\n      add\n        /* \"#utility.yul\":8557:8587   */\n      mstore\n        /* \"#utility.yul\":8623:8651   */\n      0x4d756c746963616c6c333a2076616c7565206d69736d61746368000000000000\n        /* \"#utility.yul\":8603:8621   */\n      0x44\n      dup3\n      add\n        /* \"#utility.yul\":8596:8652   */\n      mstore\n        /* \"#utility.yul\":8669:8687   */\n      0x64\n      add\n        /* \"contracts/multicall3.sol\":7818:7884  require(msg.value == valAccumulator, \"Multicall3: value mismatch\") */\n    tag_128:\n      mload(0x40)\n      dup1\n      swap2\n      sub\n      swap1\n      revert\n    tag_127:\n        /* \"contracts/multicall3.sol\":6005:7892  {... */\n      pop\n      pop\n      pop\n        /* \"contracts/multicall3.sol\":5899:7892  function aggregate3Value(Call3Value[] calldata calls) public payable returns (Result[] memory returnData) {... */\n      swap3\n      swap2\n      pop\n      pop\n      jump\t// out\n        /* \"contracts/multicall3.sol\":1206:1752  function aggregate(Call[] calldata calls) public payable returns (uint256 blockNumber, bytes[] memory returnData) {... */\n    tag_35:\n        /* \"contracts/multicall3.sol\":1345:1357  block.number */\n      number\n        /* \"contracts/multicall3.sol\":1293:1318  bytes[] memory returnData */\n      0x60\n        /* \"contracts/multicall3.sol\":1385:1390  calls */\n      dup3\n      dup1\n        /* \"contracts/multicall3.sol\":1421:1440  new bytes[](length) */\n      0xffffffffffffffff\n      dup2\n      gt\n      iszero\n      tag_132\n      jumpi\n      tag_132\n      tag_103\n      jump\t// in\n    tag_132:\n      mload(0x40)\n      swap1\n      dup1\n      dup3\n      mstore\n      dup1\n      0x20\n      mul\n      0x20\n      add\n      dup3\n      add\n      0x40\n      mstore\n      dup1\n      iszero\n      tag_133\n      jumpi\n      dup2\n      0x20\n      add\n    tag_134:\n      0x60\n      dup2\n      mstore\n      0x20\n      add\n      swap1\n      0x01\n      swap1\n      sub\n      swap1\n      dup2\n      tag_134\n      jumpi\n      swap1\n      pop\n    tag_133:\n      pop\n        /* \"contracts/multicall3.sol\":1408:1440  returnData = new bytes[](length) */\n      swap2\n      pop\n        /* \"contracts/multicall3.sol\":1451:1469  Call calldata call */\n      calldatasize\n        /* \"contracts/multicall3.sol\":1485:1494  uint256 i */\n      0x00\n        /* \"contracts/multicall3.sol\":1480:1745  for (uint256 i = 0; i < length;) {... */\n    tag_135:\n        /* \"contracts/multicall3.sol\":1504:1510  length */\n      dup3\n        /* \"contracts/multicall3.sol\":1500:1501  i */\n      dup2\n        /* \"contracts/multicall3.sol\":1500:1510  i < length */\n      lt\n        /* \"contracts/multicall3.sol\":1480:1745  for (uint256 i = 0; i < length;) {... */\n      iszero\n      tag_136\n      jumpi\n        /* \"contracts/multicall3.sol\":1528:1540  bool success */\n      0x00\n        /* \"contracts/multicall3.sol\":1562:1567  calls */\n      dup8\n      dup8\n        /* \"contracts/multicall3.sol\":1568:1569  i */\n      dup4\n        /* \"contracts/multicall3.sol\":1562:1570  calls[i] */\n      dup2\n      dup2\n      lt\n      tag_139\n      jumpi\n      tag_139\n      tag_113\n      jump\t// in\n    tag_139:\n      swap1\n      pop\n      0x20\n      mul\n      dup2\n      add\n      swap1\n      tag_140\n      swap2\n      swap1\n      tag_141\n      jump\t// in\n    tag_140:\n        /* \"contracts/multicall3.sol\":1555:1570  call = calls[i] */\n      swap3\n      pop\n        /* \"contracts/multicall3.sol\":1612:1623  call.target */\n      tag_142\n      0x20\n      dup5\n      add\n        /* \"contracts/multicall3.sol\":1555:1570  call = calls[i] */\n      dup5\n        /* \"contracts/multicall3.sol\":1612:1623  call.target */\n      tag_64\n      jump\t// in\n    tag_142:\n        /* \"contracts/multicall3.sol\":1612:1628  call.target.call */\n      0xffffffffffffffffffffffffffffffffffffffff\n      and\n        /* \"contracts/multicall3.sol\":1629:1642  call.callData */\n      tag_143\n      0x20\n      dup6\n      add\n        /* \"contracts/multicall3.sol\":1629:1633  call */\n      dup6\n        /* \"contracts/multicall3.sol\":1629:1642  call.callData */\n      tag_120\n      jump\t// in\n    tag_143:\n        /* \"contracts/multicall3.sol\":1612:1643  call.target.call(call.callData) */\n      mload(0x40)\n      tag_144\n      swap3\n      swap2\n      swap1\n      tag_122\n      jump\t// in\n    tag_144:\n      0x00\n      mload(0x40)\n      dup1\n      dup4\n      sub\n      dup2\n      0x00\n      dup7\n      gas\n      call\n      swap2\n      pop\n      pop\n      returndatasize\n      dup1\n      0x00\n      dup2\n      eq\n      tag_147\n      jumpi\n      mload(0x40)\n      swap2\n      pop\n      and(add(returndatasize, 0x3f), not(0x1f))\n      dup3\n      add\n      0x40\n      mstore\n      returndatasize\n      dup3\n      mstore\n      returndatasize\n      0x00\n      0x20\n      dup5\n      add\n      returndatacopy\n      jump(tag_146)\n    tag_147:\n      0x60\n      swap2\n      pop\n    tag_146:\n      pop\n        /* \"contracts/multicall3.sol\":1595:1605  returnData */\n      dup7\n        /* \"contracts/multicall3.sol\":1606:1607  i */\n      dup5\n        /* \"contracts/multicall3.sol\":1595:1608  returnData[i] */\n      dup2\n      mload\n      dup2\n      lt\n      tag_149\n      jumpi\n      tag_149\n      tag_113\n      jump\t// in\n    tag_149:\n      0x20\n      swap1\n      dup2\n      mul\n      swap2\n      swap1\n      swap2\n      add\n      add\n        /* \"contracts/multicall3.sol\":1585:1643  (success, returnData[i]) = call.target.call(call.callData) */\n      mstore\n      swap1\n      pop\n      dup1\n        /* \"contracts/multicall3.sol\":1658:1701  require(success, \"Multicall3: call failed\") */\n      tag_150\n      jumpi\n      mload(0x40)\n      0x08c379a000000000000000000000000000000000000000000000000000000000\n      dup2\n      mstore\n        /* \"#utility.yul\":9282:9284   */\n      0x20\n        /* \"contracts/multicall3.sol\":1658:1701  require(success, \"Multicall3: call failed\") */\n      0x04\n      dup3\n      add\n        /* \"#utility.yul\":9264:9285   */\n      mstore\n        /* \"#utility.yul\":9321:9323   */\n      0x17\n        /* \"#utility.yul\":9301:9319   */\n      0x24\n      dup3\n      add\n        /* \"#utility.yul\":9294:9324   */\n      mstore\n        /* \"#utility.yul\":9360:9385   */\n      0x4d756c746963616c6c333a2063616c6c206661696c6564000000000000000000\n        /* \"#utility.yul\":9340:9358   */\n      0x44\n      dup3\n      add\n        /* \"#utility.yul\":9333:9386   */\n      mstore\n        /* \"#utility.yul\":9403:9421   */\n      0x64\n      add\n        /* \"contracts/multicall3.sol\":1658:1701  require(success, \"Multicall3: call failed\") */\n      tag_128\n        /* \"#utility.yul\":9080:9427   */\n      jump\n        /* \"contracts/multicall3.sol\":1658:1701  require(success, \"Multicall3: call failed\") */\n    tag_150:\n      pop\n        /* \"contracts/multicall3.sol\":1728:1731  ++i */\n      0x01\n      add\n        /* \"contracts/multicall3.sol\":1480:1745  for (uint256 i = 0; i < length;) {... */\n      jump(tag_135)\n    tag_136:\n      pop\n        /* \"contracts/multicall3.sol\":1320:1752  {... */\n      pop\n      pop\n        /* \"contracts/multicall3.sol\":1206:1752  function aggregate(Call[] calldata calls) public payable returns (uint256 blockNumber, bytes[] memory returnData) {... */\n      swap3\n      pop\n      swap3\n      swap1\n      pop\n      jump\t// out\n        /* \"contracts/multicall3.sol\":3010:3326  function tryBlockAndAggregate(bool requireSuccess, Call[] calldata calls) public payable returns (uint256 blockNumber, bytes32 blockHash, Result[] memory returnData) {... */\n    tag_50:\n        /* \"contracts/multicall3.sol\":3201:3213  block.number */\n      number\n        /* \"contracts/multicall3.sol\":3236:3259  blockhash(block.number) */\n      dup1\n      blockhash\n        /* \"contracts/multicall3.sol\":3148:3174  Result[] memory returnData */\n      0x60\n        /* \"contracts/multicall3.sol\":3283:3318  tryAggregate(requireSuccess, calls) */\n      tag_156\n        /* \"contracts/multicall3.sol\":3296:3310  requireSuccess */\n      dup7\n        /* \"contracts/multicall3.sol\":3312:3317  calls */\n      dup7\n      dup7\n        /* \"contracts/multicall3.sol\":3283:3295  tryAggregate */\n      tag_87\n        /* \"contracts/multicall3.sol\":3283:3318  tryAggregate(requireSuccess, calls) */\n      jump\t// in\n    tag_156:\n        /* \"contracts/multicall3.sol\":3270:3318  returnData = tryAggregate(requireSuccess, calls) */\n      swap1\n      pop\n        /* \"contracts/multicall3.sol\":3010:3326  function tryBlockAndAggregate(bool requireSuccess, Call[] calldata calls) public payable returns (uint256 blockNumber, bytes32 blockHash, Result[] memory returnData) {... */\n      swap4\n      pop\n      swap4\n      pop\n      swap4\n      swap1\n      pop\n      jump\t// out\n        /* \"contracts/multicall3.sol\":4136:5655  function aggregate3(Call3[] calldata calls) public payable returns (Result[] memory returnData) {... */\n    tag_74:\n        /* \"contracts/multicall3.sol\":4204:4230  Result[] memory returnData */\n      0x60\n        /* \"contracts/multicall3.sol\":4260:4265  calls */\n      dup2\n      dup1\n        /* \"contracts/multicall3.sol\":4296:4316  new Result[](length) */\n      0xffffffffffffffff\n      dup2\n      gt\n      iszero\n      tag_163\n      jumpi\n      tag_163\n      tag_103\n      jump\t// in\n    tag_163:\n      mload(0x40)\n      swap1\n      dup1\n      dup3\n      mstore\n      dup1\n      0x20\n      mul\n      0x20\n      add\n      dup3\n      add\n      0x40\n      mstore\n      dup1\n      iszero\n      tag_164\n      jumpi\n      dup2\n      0x20\n      add\n    tag_165:\n      0x40\n      dup1\n      mload\n      dup1\n      dup3\n      add\n      swap1\n      swap2\n      mstore\n      0x00\n      dup2\n      mstore\n      0x60\n      0x20\n      dup3\n      add\n      mstore\n      dup2\n      mstore\n      0x20\n      add\n      swap1\n      0x01\n      swap1\n      sub\n      swap1\n      dup2\n      tag_165\n      jumpi\n      swap1\n      pop\n    tag_164:\n      pop\n        /* \"contracts/multicall3.sol\":4283:4316  returnData = new Result[](length) */\n      swap2\n      pop\n        /* \"contracts/multicall3.sol\":4327:4347  Call3 calldata calli */\n      calldatasize\n        /* \"contracts/multicall3.sol\":4363:4372  uint256 i */\n      0x00\n        /* \"contracts/multicall3.sol\":4358:5648  for (uint256 i = 0; i < length;) {... */\n    tag_167:\n        /* \"contracts/multicall3.sol\":4382:4388  length */\n      dup3\n        /* \"contracts/multicall3.sol\":4378:4379  i */\n      dup2\n        /* \"contracts/multicall3.sol\":4378:4388  i < length */\n      lt\n        /* \"contracts/multicall3.sol\":4358:5648  for (uint256 i = 0; i < length;) {... */\n      iszero\n      tag_127\n      jumpi\n        /* \"contracts/multicall3.sol\":4406:4426  Result memory result */\n      0x00\n        /* \"contracts/multicall3.sol\":4429:4439  returnData */\n      dup5\n        /* \"contracts/multicall3.sol\":4440:4441  i */\n      dup3\n        /* \"contracts/multicall3.sol\":4429:4442  returnData[i] */\n      dup2\n      mload\n      dup2\n      lt\n      tag_171\n      jumpi\n      tag_171\n      tag_113\n      jump\t// in\n    tag_171:\n      0x20\n      mul\n      0x20\n      add\n      add\n      mload\n        /* \"contracts/multicall3.sol\":4406:4442  Result memory result = returnData[i] */\n      swap1\n      pop\n        /* \"contracts/multicall3.sol\":4465:4470  calls */\n      dup7\n      dup7\n        /* \"contracts/multicall3.sol\":4471:4472  i */\n      dup4\n        /* \"contracts/multicall3.sol\":4465:4473  calls[i] */\n      dup2\n      dup2\n      lt\n      tag_173\n      jumpi\n      tag_173\n      tag_113\n      jump\t// in\n    tag_173:\n      swap1\n      pop\n      0x20\n      mul\n      dup2\n      add\n      swap1\n      tag_174\n      swap2\n      swap1\n      tag_175\n      jump\t// in\n    tag_174:\n        /* \"contracts/multicall3.sol\":4457:4473  calli = calls[i] */\n      swap3\n      pop\n        /* \"contracts/multicall3.sol\":4526:4538  calli.target */\n      tag_176\n      0x20\n      dup5\n      add\n        /* \"contracts/multicall3.sol\":4457:4473  calli = calls[i] */\n      dup5\n        /* \"contracts/multicall3.sol\":4526:4538  calli.target */\n      tag_64\n      jump\t// in\n    tag_176:\n        /* \"contracts/multicall3.sol\":4526:4543  calli.target.call */\n      0xffffffffffffffffffffffffffffffffffffffff\n      and\n        /* \"contracts/multicall3.sol\":4544:4558  calli.callData */\n      tag_177\n      0x40\n      dup6\n      add\n        /* \"contracts/multicall3.sol\":4544:4549  calli */\n      dup6\n        /* \"contracts/multicall3.sol\":4544:4558  calli.callData */\n      tag_120\n      jump\t// in\n    tag_177:\n        /* \"contracts/multicall3.sol\":4526:4559  calli.target.call(calli.callData) */\n      mload(0x40)\n      tag_178\n      swap3\n      swap2\n      swap1\n      tag_122\n      jump\t// in\n    tag_178:\n      0x00\n      mload(0x40)\n      dup1\n      dup4\n      sub\n      dup2\n      0x00\n      dup7\n      gas\n      call\n      swap2\n      pop\n      pop\n      returndatasize\n      dup1\n      0x00\n      dup2\n      eq\n      tag_181\n      jumpi\n      mload(0x40)\n      swap2\n      pop\n      and(add(returndatasize, 0x3f), not(0x1f))\n      dup3\n      add\n      0x40\n      mstore\n      returndatasize\n      dup3\n      mstore\n      returndatasize\n      0x00\n      0x20\n      dup5\n      add\n      returndatacopy\n      jump(tag_180)\n    tag_181:\n      0x60\n      swap2\n      pop\n    tag_180:\n      pop\n        /* \"contracts/multicall3.sol\":4505:4522  result.returnData */\n      0x20\n      dup1\n      dup5\n      add\n        /* \"contracts/multicall3.sol\":4488:4559  (result.success, result.returnData) = calli.target.call(calli.callData) */\n      swap2\n      swap1\n      swap2\n      mstore\n      swap1\n      iszero\n      iszero\n      dup1\n      dup4\n      mstore\n        /* \"contracts/multicall3.sol\":4800:4816  add(calli, 0x20) */\n      swap1\n      dup5\n      add\n        /* \"contracts/multicall3.sol\":4787:4817  calldataload(add(calli, 0x20)) */\n      calldataload\n        /* \"contracts/multicall3.sol\":4784:4833  or(calldataload(add(calli, 0x20)), mload(result)) */\n      or\n        /* \"contracts/multicall3.sol\":4774:5590  if iszero(or(calldataload(add(calli, 0x20)), mload(result))) {... */\n      tag_182\n      jumpi\n        /* \"contracts/multicall3.sol\":4970:5036  0x08c379a000000000000000000000000000000000000000000000000000000000 */\n      0x08c379a000000000000000000000000000000000000000000000000000000000\n        /* \"contracts/multicall3.sol\":4964:4968  0x00 */\n      0x00\n        /* \"contracts/multicall3.sol\":4957:5037  mstore(0x00, 0x08c379a000000000000000000000000000000000000000000000000000000000) */\n      mstore\n        /* \"contracts/multicall3.sol\":5112:5178  0x0000000000000000000000000000000000000000000000000000000000000020 */\n      0x20\n        /* \"contracts/multicall3.sol\":5106:5110  0x04 */\n      0x04\n        /* \"contracts/multicall3.sol\":5099:5179  mstore(0x04, 0x0000000000000000000000000000000000000000000000000000000000000020) */\n      mstore\n        /* \"contracts/multicall3.sol\":5266:5332  0x0000000000000000000000000000000000000000000000000000000000000017 */\n      0x17\n        /* \"contracts/multicall3.sol\":5260:5264  0x24 */\n      0x24\n        /* \"contracts/multicall3.sol\":5253:5333  mstore(0x24, 0x0000000000000000000000000000000000000000000000000000000000000017) */\n      mstore\n        /* \"contracts/multicall3.sol\":5464:5530  0x4d756c746963616c6c333a2063616c6c206661696c6564000000000000000000 */\n      0x4d756c746963616c6c333a2063616c6c206661696c6564000000000000000000\n        /* \"contracts/multicall3.sol\":5458:5462  0x44 */\n      0x44\n        /* \"contracts/multicall3.sol\":5451:5531  mstore(0x44, 0x4d756c746963616c6c333a2063616c6c206661696c6564000000000000000000) */\n      mstore\n        /* \"contracts/multicall3.sol\":5566:5570  0x64 */\n      0x64\n        /* \"contracts/multicall3.sol\":5560:5564  0x00 */\n      0x00\n        /* \"contracts/multicall3.sol\":5553:5571  revert(0x00, 0x64) */\n      revert\n        /* \"contracts/multicall3.sol\":4774:5590  if iszero(or(calldataload(add(calli, 0x20)), mload(result))) {... */\n    tag_182:\n      pop\n        /* \"contracts/multicall3.sol\":5631:5634  ++i */\n      0x01\n      add\n        /* \"contracts/multicall3.sol\":4358:5648  for (uint256 i = 0; i < length;) {... */\n      jump(tag_167)\n        /* \"contracts/multicall3.sol\":2044:2620  function tryAggregate(bool requireSuccess, Call[] calldata calls) public payable returns (Result[] memory returnData) {... */\n    tag_87:\n        /* \"contracts/multicall3.sol\":2134:2160  Result[] memory returnData */\n      0x60\n        /* \"contracts/multicall3.sol\":2190:2195  calls */\n      dup2\n      dup1\n        /* \"contracts/multicall3.sol\":2226:2246  new Result[](length) */\n      0xffffffffffffffff\n      dup2\n      gt\n      iszero\n      tag_187\n      jumpi\n      tag_187\n      tag_103\n      jump\t// in\n    tag_187:\n      mload(0x40)\n      swap1\n      dup1\n      dup3\n      mstore\n      dup1\n      0x20\n      mul\n      0x20\n      add\n      dup3\n      add\n      0x40\n      mstore\n      dup1\n      iszero\n      tag_188\n      jumpi\n      dup2\n      0x20\n      add\n    tag_189:\n      0x40\n      dup1\n      mload\n      dup1\n      dup3\n      add\n      swap1\n      swap2\n      mstore\n      0x00\n      dup2\n      mstore\n      0x60\n      0x20\n      dup3\n      add\n      mstore\n      dup2\n      mstore\n      0x20\n      add\n      swap1\n      0x01\n      swap1\n      sub\n      swap1\n      dup2\n      tag_189\n      jumpi\n      swap1\n      pop\n    tag_188:\n      pop\n        /* \"contracts/multicall3.sol\":2213:2246  returnData = new Result[](length) */\n      swap2\n      pop\n        /* \"contracts/multicall3.sol\":2257:2275  Call calldata call */\n      calldatasize\n        /* \"contracts/multicall3.sol\":2291:2300  uint256 i */\n      0x00\n        /* \"contracts/multicall3.sol\":2286:2613  for (uint256 i = 0; i < length;) {... */\n    tag_191:\n        /* \"contracts/multicall3.sol\":2310:2316  length */\n      dup3\n        /* \"contracts/multicall3.sol\":2306:2307  i */\n      dup2\n        /* \"contracts/multicall3.sol\":2306:2316  i < length */\n      lt\n        /* \"contracts/multicall3.sol\":2286:2613  for (uint256 i = 0; i < length;) {... */\n      iszero\n      tag_192\n      jumpi\n        /* \"contracts/multicall3.sol\":2334:2354  Result memory result */\n      0x00\n        /* \"contracts/multicall3.sol\":2357:2367  returnData */\n      dup5\n        /* \"contracts/multicall3.sol\":2368:2369  i */\n      dup3\n        /* \"contracts/multicall3.sol\":2357:2370  returnData[i] */\n      dup2\n      mload\n      dup2\n      lt\n      tag_195\n      jumpi\n      tag_195\n      tag_113\n      jump\t// in\n    tag_195:\n      0x20\n      mul\n      0x20\n      add\n      add\n      mload\n        /* \"contracts/multicall3.sol\":2334:2370  Result memory result = returnData[i] */\n      swap1\n      pop\n        /* \"contracts/multicall3.sol\":2392:2397  calls */\n      dup7\n      dup7\n        /* \"contracts/multicall3.sol\":2398:2399  i */\n      dup4\n        /* \"contracts/multicall3.sol\":2392:2400  calls[i] */\n      dup2\n      dup2\n      lt\n      tag_197\n      jumpi\n      tag_197\n      tag_113\n      jump\t// in\n    tag_197:\n      swap1\n      pop\n      0x20\n      mul\n      dup2\n      add\n      swap1\n      tag_198\n      swap2\n      swap1\n      tag_141\n      jump\t// in\n    tag_198:\n        /* \"contracts/multicall3.sol\":2385:2400  call = calls[i] */\n      swap3\n      pop\n        /* \"contracts/multicall3.sol\":2453:2464  call.target */\n      tag_199\n      0x20\n      dup5\n      add\n        /* \"contracts/multicall3.sol\":2385:2400  call = calls[i] */\n      dup5\n        /* \"contracts/multicall3.sol\":2453:2464  call.target */\n      tag_64\n      jump\t// in\n    tag_199:\n        /* \"contracts/multicall3.sol\":2453:2469  call.target.call */\n      0xffffffffffffffffffffffffffffffffffffffff\n      and\n        /* \"contracts/multicall3.sol\":2470:2483  call.callData */\n      tag_200\n      0x20\n      dup6\n      add\n        /* \"contracts/multicall3.sol\":2470:2474  call */\n      dup6\n        /* \"contracts/multicall3.sol\":2470:2483  call.callData */\n      tag_120\n      jump\t// in\n    tag_200:\n        /* \"contracts/multicall3.sol\":2453:2484  call.target.call(call.callData) */\n      mload(0x40)\n      tag_201\n      swap3\n      swap2\n      swap1\n      tag_122\n      jump\t// in\n    tag_201:\n      0x00\n      mload(0x40)\n      dup1\n      dup4\n      sub\n      dup2\n      0x00\n      dup7\n      gas\n      call\n      swap2\n      pop\n      pop\n      returndatasize\n      dup1\n      0x00\n      dup2\n      eq\n      tag_204\n      jumpi\n      mload(0x40)\n      swap2\n      pop\n      and(add(returndatasize, 0x3f), not(0x1f))\n      dup3\n      add\n      0x40\n      mstore\n      returndatasize\n      dup3\n      mstore\n      returndatasize\n      0x00\n      0x20\n      dup5\n      add\n      returndatacopy\n      jump(tag_203)\n    tag_204:\n      0x60\n      swap2\n      pop\n    tag_203:\n      pop\n        /* \"contracts/multicall3.sol\":2432:2449  result.returnData */\n      0x20\n      dup4\n      add\n        /* \"contracts/multicall3.sol\":2415:2484  (result.success, result.returnData) = call.target.call(call.callData) */\n      mstore\n      iszero\n      iszero\n      dup2\n      mstore\n        /* \"contracts/multicall3.sol\":2499:2569  if (requireSuccess) require(result.success, \"Multicall3: call failed\") */\n      dup8\n      iszero\n      tag_206\n      jumpi\n        /* \"contracts/multicall3.sol\":2527:2541  result.success */\n      dup1\n      mload\n        /* \"contracts/multicall3.sol\":2519:2569  require(result.success, \"Multicall3: call failed\") */\n      tag_206\n      jumpi\n      mload(0x40)\n      0x08c379a000000000000000000000000000000000000000000000000000000000\n      dup2\n      mstore\n        /* \"#utility.yul\":9282:9284   */\n      0x20\n        /* \"contracts/multicall3.sol\":2519:2569  require(result.success, \"Multicall3: call failed\") */\n      0x04\n      dup3\n      add\n        /* \"#utility.yul\":9264:9285   */\n      mstore\n        /* \"#utility.yul\":9321:9323   */\n      0x17\n        /* \"#utility.yul\":9301:9319   */\n      0x24\n      dup3\n      add\n        /* \"#utility.yul\":9294:9324   */\n      mstore\n        /* \"#utility.yul\":9360:9385   */\n      0x4d756c746963616c6c333a2063616c6c206661696c6564000000000000000000\n        /* \"#utility.yul\":9340:9358   */\n      0x44\n      dup3\n      add\n        /* \"#utility.yul\":9333:9386   */\n      mstore\n        /* \"#utility.yul\":9403:9421   */\n      0x64\n      add\n        /* \"contracts/multicall3.sol\":2519:2569  require(result.success, \"Multicall3: call failed\") */\n      tag_128\n        /* \"#utility.yul\":9080:9427   */\n      jump\n        /* \"contracts/multicall3.sol\":2519:2569  require(result.success, \"Multicall3: call failed\") */\n    tag_206:\n      pop\n        /* \"contracts/multicall3.sol\":2596:2599  ++i */\n      0x01\n      add\n        /* \"contracts/multicall3.sol\":2286:2613  for (uint256 i = 0; i < length;) {... */\n      jump(tag_191)\n    tag_192:\n      pop\n        /* \"contracts/multicall3.sol\":2162:2620  {... */\n      pop\n      pop\n        /* \"contracts/multicall3.sol\":2044:2620  function tryAggregate(bool requireSuccess, Call[] calldata calls) public payable returns (Result[] memory returnData) {... */\n      swap4\n      swap3\n      pop\n      pop\n      pop\n      jump\t// out\n        /* \"contracts/multicall3.sol\":3716:3949  function blockAndAggregate(Call[] calldata calls) public payable returns (uint256 blockNumber, bytes32 blockHash, Result[] memory returnData) {... */\n    tag_91:\n        /* \"contracts/multicall3.sol\":3790:3809  uint256 blockNumber */\n      0x00\n        /* \"contracts/multicall3.sol\":3811:3828  bytes32 blockHash */\n      dup1\n        /* \"contracts/multicall3.sol\":3830:3856  Result[] memory returnData */\n      0x60\n        /* \"contracts/multicall3.sol\":3908:3941  tryBlockAndAggregate(true, calls) */\n      tag_209\n        /* \"contracts/multicall3.sol\":3929:3933  true */\n      0x01\n        /* \"contracts/multicall3.sol\":3935:3940  calls */\n      dup7\n      dup7\n        /* \"contracts/multicall3.sol\":3908:3928  tryBlockAndAggregate */\n      tag_50\n        /* \"contracts/multicall3.sol\":3908:3941  tryBlockAndAggregate(true, calls) */\n      jump\t// in\n    tag_209:\n        /* \"contracts/multicall3.sol\":3869:3941  (blockNumber, blockHash, returnData) = tryBlockAndAggregate(true, calls) */\n      swap2\n      swap8\n      swap1\n      swap7\n      pop\n      swap1\n      swap5\n      pop\n        /* \"contracts/multicall3.sol\":3716:3949  function blockAndAggregate(Call[] calldata calls) public payable returns (uint256 blockNumber, bytes32 blockHash, Result[] memory returnData) {... */\n      swap3\n      pop\n      pop\n      pop\n      jump\t// out\n        /* \"#utility.yul\":196:582   */\n    tag_211:\n        /* \"#utility.yul\":278:286   */\n      0x00\n        /* \"#utility.yul\":288:294   */\n      dup1\n        /* \"#utility.yul\":342:345   */\n      dup4\n        /* \"#utility.yul\":335:339   */\n      0x1f\n        /* \"#utility.yul\":327:333   */\n      dup5\n        /* \"#utility.yul\":323:340   */\n      add\n        /* \"#utility.yul\":319:346   */\n      slt\n        /* \"#utility.yul\":309:364   */\n      tag_217\n      jumpi\n        /* \"#utility.yul\":360:361   */\n      0x00\n        /* \"#utility.yul\":357:358   */\n      dup1\n        /* \"#utility.yul\":350:362   */\n      revert\n        /* \"#utility.yul\":309:364   */\n    tag_217:\n      pop\n        /* \"#utility.yul\":383:403   */\n      dup2\n      calldataload\n        /* \"#utility.yul\":426:444   */\n      0xffffffffffffffff\n        /* \"#utility.yul\":415:445   */\n      dup2\n      gt\n        /* \"#utility.yul\":412:462   */\n      iszero\n      tag_218\n      jumpi\n        /* \"#utility.yul\":458:459   */\n      0x00\n        /* \"#utility.yul\":455:456   */\n      dup1\n        /* \"#utility.yul\":448:460   */\n      revert\n        /* \"#utility.yul\":412:462   */\n    tag_218:\n        /* \"#utility.yul\":495:499   */\n      0x20\n        /* \"#utility.yul\":487:493   */\n      dup4\n        /* \"#utility.yul\":483:500   */\n      add\n        /* \"#utility.yul\":471:500   */\n      swap2\n      pop\n        /* \"#utility.yul\":555:558   */\n      dup4\n        /* \"#utility.yul\":548:552   */\n      0x20\n        /* \"#utility.yul\":538:544   */\n      dup3\n        /* \"#utility.yul\":535:536   */\n      0x05\n        /* \"#utility.yul\":531:545   */\n      shl\n        /* \"#utility.yul\":523:529   */\n      dup6\n        /* \"#utility.yul\":519:546   */\n      add\n        /* \"#utility.yul\":515:553   */\n      add\n        /* \"#utility.yul\":512:559   */\n      gt\n        /* \"#utility.yul\":509:576   */\n      iszero\n      tag_219\n      jumpi\n        /* \"#utility.yul\":572:573   */\n      0x00\n        /* \"#utility.yul\":569:570   */\n      dup1\n        /* \"#utility.yul\":562:574   */\n      revert\n        /* \"#utility.yul\":509:576   */\n    tag_219:\n        /* \"#utility.yul\":196:582   */\n      swap3\n      pop\n      swap3\n      swap1\n      pop\n      jump\t// out\n        /* \"#utility.yul\":587:1071   */\n    tag_28:\n        /* \"#utility.yul\":701:707   */\n      0x00\n        /* \"#utility.yul\":709:715   */\n      dup1\n        /* \"#utility.yul\":762:764   */\n      0x20\n        /* \"#utility.yul\":750:759   */\n      dup4\n        /* \"#utility.yul\":741:748   */\n      dup6\n        /* \"#utility.yul\":737:760   */\n      sub\n        /* \"#utility.yul\":733:765   */\n      slt\n        /* \"#utility.yul\":730:782   */\n      iszero\n      tag_221\n      jumpi\n        /* \"#utility.yul\":778:779   */\n      0x00\n        /* \"#utility.yul\":775:776   */\n      dup1\n        /* \"#utility.yul\":768:780   */\n      revert\n        /* \"#utility.yul\":730:782   */\n    tag_221:\n        /* \"#utility.yul\":818:827   */\n      dup3\n        /* \"#utility.yul\":805:828   */\n      calldataload\n        /* \"#utility.yul\":851:869   */\n      0xffffffffffffffff\n        /* \"#utility.yul\":843:849   */\n      dup2\n        /* \"#utility.yul\":840:870   */\n      gt\n        /* \"#utility.yul\":837:887   */\n      iszero\n      tag_222\n      jumpi\n        /* \"#utility.yul\":883:884   */\n      0x00\n        /* \"#utility.yul\":880:881   */\n      dup1\n        /* \"#utility.yul\":873:885   */\n      revert\n        /* \"#utility.yul\":837:887   */\n    tag_222:\n        /* \"#utility.yul\":922:1011   */\n      tag_223\n        /* \"#utility.yul\":1003:1010   */\n      dup6\n        /* \"#utility.yul\":994:1000   */\n      dup3\n        /* \"#utility.yul\":983:992   */\n      dup7\n        /* \"#utility.yul\":979:1001   */\n      add\n        /* \"#utility.yul\":922:1011   */\n      tag_211\n      jump\t// in\n    tag_223:\n        /* \"#utility.yul\":1030:1038   */\n      swap1\n      swap7\n        /* \"#utility.yul\":896:1011   */\n      swap1\n      swap6\n      pop\n        /* \"#utility.yul\":587:1071   */\n      swap4\n      pop\n      pop\n      pop\n      pop\n      jump\t// out\n        /* \"#utility.yul\":1076:1606   */\n    tag_212:\n        /* \"#utility.yul\":1117:1120   */\n      0x00\n        /* \"#utility.yul\":1155:1160   */\n      dup2\n        /* \"#utility.yul\":1149:1161   */\n      mload\n        /* \"#utility.yul\":1182:1188   */\n      dup1\n        /* \"#utility.yul\":1177:1180   */\n      dup5\n        /* \"#utility.yul\":1170:1189   */\n      mstore\n        /* \"#utility.yul\":1207:1208   */\n      0x00\n        /* \"#utility.yul\":1217:1379   */\n    tag_225:\n        /* \"#utility.yul\":1231:1237   */\n      dup2\n        /* \"#utility.yul\":1228:1229   */\n      dup2\n        /* \"#utility.yul\":1225:1238   */\n      lt\n        /* \"#utility.yul\":1217:1379   */\n      iszero\n      tag_227\n      jumpi\n        /* \"#utility.yul\":1293:1297   */\n      0x20\n        /* \"#utility.yul\":1349:1362   */\n      dup2\n      dup6\n      add\n        /* \"#utility.yul\":1345:1367   */\n      dup2\n      add\n        /* \"#utility.yul\":1339:1368   */\n      mload\n        /* \"#utility.yul\":1321:1332   */\n      dup7\n      dup4\n      add\n        /* \"#utility.yul\":1317:1337   */\n      dup3\n      add\n        /* \"#utility.yul\":1310:1369   */\n      mstore\n        /* \"#utility.yul\":1246:1258   */\n      add\n        /* \"#utility.yul\":1217:1379   */\n      jump(tag_225)\n    tag_227:\n        /* \"#utility.yul\":1397:1403   */\n      dup2\n        /* \"#utility.yul\":1394:1395   */\n      dup2\n        /* \"#utility.yul\":1391:1404   */\n      gt\n        /* \"#utility.yul\":1388:1475   */\n      iszero\n      tag_228\n      jumpi\n        /* \"#utility.yul\":1463:1464   */\n      0x00\n        /* \"#utility.yul\":1456:1460   */\n      0x20\n        /* \"#utility.yul\":1447:1453   */\n      dup4\n        /* \"#utility.yul\":1442:1445   */\n      dup8\n        /* \"#utility.yul\":1438:1454   */\n      add\n        /* \"#utility.yul\":1434:1461   */\n      add\n        /* \"#utility.yul\":1427:1465   */\n      mstore\n        /* \"#utility.yul\":1388:1475   */\n    tag_228:\n      pop\n        /* \"#utility.yul\":1520:1522   */\n      0x1f\n        /* \"#utility.yul\":1508:1523   */\n      add\n        /* \"#utility.yul\":1525:1591   */\n      0xffffffffffffffffffffffffffffffffffffffffffffffffffffffffffffffe0\n        /* \"#utility.yul\":1504:1592   */\n      and\n        /* \"#utility.yul\":1495:1593   */\n      swap3\n      swap1\n      swap3\n      add\n        /* \"#utility.yul\":1595:1599   */\n      0x20\n        /* \"#utility.yul\":1491:1600   */\n      add\n      swap3\n        /* \"#utility.yul\":1076:1606   */\n      swap2\n      pop\n      pop\n      jump\t// out\n        /* \"#utility.yul\":1611:2480   */\n    tag_213:\n        /* \"#utility.yul\":1670:1673   */\n      0x00\n        /* \"#utility.yul\":1701:1704   */\n      dup3\n        /* \"#utility.yul\":1733:1738   */\n      dup3\n        /* \"#utility.yul\":1727:1739   */\n      mload\n        /* \"#utility.yul\":1760:1766   */\n      dup1\n        /* \"#utility.yul\":1755:1758   */\n      dup6\n        /* \"#utility.yul\":1748:1767   */\n      mstore\n        /* \"#utility.yul\":1786:1790   */\n      0x20\n        /* \"#utility.yul\":1815:1817   */\n      dup1\n        /* \"#utility.yul\":1810:1813   */\n      dup7\n        /* \"#utility.yul\":1806:1818   */\n      add\n        /* \"#utility.yul\":1799:1818   */\n      swap6\n      pop\n        /* \"#utility.yul\":1871:1873   */\n      dup1\n        /* \"#utility.yul\":1861:1867   */\n      dup3\n        /* \"#utility.yul\":1858:1859   */\n      0x05\n        /* \"#utility.yul\":1854:1868   */\n      shl\n        /* \"#utility.yul\":1847:1852   */\n      dup5\n        /* \"#utility.yul\":1843:1869   */\n      add\n        /* \"#utility.yul\":1839:1874   */\n      add\n        /* \"#utility.yul\":1908:1910   */\n      dup2\n        /* \"#utility.yul\":1901:1906   */\n      dup7\n        /* \"#utility.yul\":1897:1911   */\n      add\n        /* \"#utility.yul\":1929:1930   */\n      0x00\n        /* \"#utility.yul\":1939:2454   */\n    tag_230:\n        /* \"#utility.yul\":1953:1959   */\n      dup5\n        /* \"#utility.yul\":1950:1951   */\n      dup2\n        /* \"#utility.yul\":1947:1960   */\n      lt\n        /* \"#utility.yul\":1939:2454   */\n      iszero\n      tag_232\n      jumpi\n        /* \"#utility.yul\":2018:2034   */\n      dup6\n      dup4\n      sub\n        /* \"#utility.yul\":2036:2102   */\n      0xffffffffffffffffffffffffffffffffffffffffffffffffffffffffffffffe0\n        /* \"#utility.yul\":2014:2103   */\n      add\n        /* \"#utility.yul\":2002:2104   */\n      dup10\n      mstore\n        /* \"#utility.yul\":2127:2140   */\n      dup2\n      mload\n        /* \"#utility.yul\":2207:2216   */\n      dup1\n      mload\n        /* \"#utility.yul\":2200:2217   */\n      iszero\n        /* \"#utility.yul\":2193:2218   */\n      iszero\n        /* \"#utility.yul\":2180:2219   */\n      dup5\n      mstore\n        /* \"#utility.yul\":2258:2269   */\n      dup5\n      add\n        /* \"#utility.yul\":2252:2270   */\n      mload\n        /* \"#utility.yul\":2163:2167   */\n      0x40\n        /* \"#utility.yul\":2290:2303   */\n      dup6\n      dup6\n      add\n        /* \"#utility.yul\":2283:2308   */\n      dup2\n      swap1\n      mstore\n        /* \"#utility.yul\":2329:2374   */\n      tag_233\n        /* \"#utility.yul\":2360:2373   */\n      dup2\n      dup7\n      add\n        /* \"#utility.yul\":2252:2270   */\n      dup4\n        /* \"#utility.yul\":2329:2374   */\n      tag_212\n      jump\t// in\n    tag_233:\n        /* \"#utility.yul\":2432:2444   */\n      swap11\n      dup7\n      add\n      swap11\n        /* \"#utility.yul\":2321:2374   */\n      swap5\n      pop\n      pop\n      pop\n        /* \"#utility.yul\":2397:2412   */\n      swap1\n      dup4\n      add\n      swap1\n        /* \"#utility.yul\":1975:1976   */\n      0x01\n        /* \"#utility.yul\":1968:1977   */\n      add\n        /* \"#utility.yul\":1939:2454   */\n      jump(tag_230)\n    tag_232:\n      pop\n        /* \"#utility.yul\":2470:2474   */\n      swap1\n      swap8\n        /* \"#utility.yul\":1611:2480   */\n      swap7\n      pop\n      pop\n      pop\n      pop\n      pop\n      pop\n      pop\n      jump\t// out\n        /* \"#utility.yul\":2485:2796   */\n    tag_31:\n        /* \"#utility.yul\":2708:2710   */\n      0x20\n        /* \"#utility.yul\":2697:2706   */\n      dup2\n        /* \"#utility.yul\":2690:2711   */\n      mstore\n        /* \"#utility.yul\":2671:2675   */\n      0x00\n        /* \"#utility.yul\":2728:2790   */\n      tag_235\n        /* \"#utility.yul\":2786:2788   */\n      0x20\n        /* \"#utility.yul\":2775:2784   */\n      dup4\n        /* \"#utility.yul\":2771:2789   */\n      add\n        /* \"#utility.yul\":2763:2769   */\n      dup5\n        /* \"#utility.yul\":2728:2790   */\n      tag_213\n      jump\t// in\n    tag_235:\n        /* \"#utility.yul\":2720:2790   */\n      swap4\n        /* \"#utility.yul\":2485:2796   */\n      swap3\n      pop\n      pop\n      pop\n      jump\t// out\n        /* \"#utility.yul\":3283:4213   */\n    tag_37:\n        /* \"#utility.yul\":3471:3475   */\n      0x00\n        /* \"#utility.yul\":3519:3521   */\n      0x40\n        /* \"#utility.yul\":3508:3517   */\n      dup3\n        /* \"#utility.yul\":3504:3522   */\n      add\n        /* \"#utility.yul\":3549:3555   */\n      dup5\n        /* \"#utility.yul\":3538:3547   */\n      dup4\n        /* \"#utility.yul\":3531:3556   */\n      mstore\n        /* \"#utility.yul\":3575:3577   */\n      0x20\n        /* \"#utility.yul\":3613:3615   */\n      0x40\n        /* \"#utility.yul\":3608:3610   */\n      dup2\n        /* \"#utility.yul\":3597:3606   */\n      dup6\n        /* \"#utility.yul\":3593:3611   */\n      add\n        /* \"#utility.yul\":3586:3616   */\n      mstore\n        /* \"#utility.yul\":3636:3642   */\n      dup2\n        /* \"#utility.yul\":3671:3677   */\n      dup6\n        /* \"#utility.yul\":3665:3678   */\n      mload\n        /* \"#utility.yul\":3702:3708   */\n      dup1\n        /* \"#utility.yul\":3694:3700   */\n      dup5\n        /* \"#utility.yul\":3687:3709   */\n      mstore\n        /* \"#utility.yul\":3740:3742   */\n      0x60\n        /* \"#utility.yul\":3729:3738   */\n      dup7\n        /* \"#utility.yul\":3725:3743   */\n      add\n        /* \"#utility.yul\":3718:3743   */\n      swap2\n      pop\n        /* \"#utility.yul\":3802:3804   */\n      0x60\n        /* \"#utility.yul\":3792:3798   */\n      dup2\n        /* \"#utility.yul\":3789:3790   */\n      0x05\n        /* \"#utility.yul\":3785:3799   */\n      shl\n        /* \"#utility.yul\":3774:3783   */\n      dup8\n        /* \"#utility.yul\":3770:3800   */\n      add\n        /* \"#utility.yul\":3766:3805   */\n      add\n        /* \"#utility.yul\":3752:3805   */\n      swap4\n      pop\n        /* \"#utility.yul\":3840:3842   */\n      dup3\n        /* \"#utility.yul\":3832:3838   */\n      dup8\n        /* \"#utility.yul\":3828:3843   */\n      add\n        /* \"#utility.yul\":3861:3862   */\n      0x00\n        /* \"#utility.yul\":3871:4184   */\n    tag_241:\n        /* \"#utility.yul\":3885:3891   */\n      dup3\n        /* \"#utility.yul\":3882:3883   */\n      dup2\n        /* \"#utility.yul\":3879:3892   */\n      lt\n        /* \"#utility.yul\":3871:4184   */\n      iszero\n      tag_243\n      jumpi\n        /* \"#utility.yul\":3974:4040   */\n      0xffffffffffffffffffffffffffffffffffffffffffffffffffffffffffffffa0\n        /* \"#utility.yul\":3962:3971   */\n      dup9\n        /* \"#utility.yul\":3954:3960   */\n      dup8\n        /* \"#utility.yul\":3950:3972   */\n      sub\n        /* \"#utility.yul\":3946:4041   */\n      add\n        /* \"#utility.yul\":3941:3944   */\n      dup5\n        /* \"#utility.yul\":3934:4042   */\n      mstore\n        /* \"#utility.yul\":4065:4104   */\n      tag_244\n        /* \"#utility.yul\":4097:4103   */\n      dup7\n        /* \"#utility.yul\":4088:4094   */\n      dup4\n        /* \"#utility.yul\":4082:4095   */\n      mload\n        /* \"#utility.yul\":4065:4104   */\n      tag_212\n      jump\t// in\n    tag_244:\n        /* \"#utility.yul\":4055:4104   */\n      swap6\n      pop\n        /* \"#utility.yul\":4162:4174   */\n      swap3\n      dup5\n      add\n      swap3\n        /* \"#utility.yul\":4127:4142   */\n      swap1\n      dup5\n      add\n      swap1\n        /* \"#utility.yul\":3907:3908   */\n      0x01\n        /* \"#utility.yul\":3900:3909   */\n      add\n        /* \"#utility.yul\":3871:4184   */\n      jump(tag_241)\n    tag_243:\n      pop\n        /* \"#utility.yul\":4201:4207   */\n      swap4\n      swap9\n        /* \"#utility.yul\":3283:4213   */\n      swap8\n      pop\n      pop\n      pop\n      pop\n      pop\n      pop\n      pop\n      pop\n      jump\t// out\n        /* \"#utility.yul\":4400:5038   */\n    tag_49:\n        /* \"#utility.yul\":4513:4519   */\n      0x00\n        /* \"#utility.yul\":4521:4527   */\n      dup1\n        /* \"#utility.yul\":4529:4535   */\n      0x00\n        /* \"#utility.yul\":4582:4584   */\n      0x40\n        /* \"#utility.yul\":4570:4579   */\n      dup5\n        /* \"#utility.yul\":4561:4568   */\n      dup7\n        /* \"#utility.yul\":4557:4580   */\n      sub\n        /* \"#utility.yul\":4553:4585   */\n      slt\n        /* \"#utility.yul\":4550:4602   */\n      iszero\n      tag_247\n      jumpi\n        /* \"#utility.yul\":4598:4599   */\n      0x00\n        /* \"#utility.yul\":4595:4596   */\n      dup1\n        /* \"#utility.yul\":4588:4600   */\n      revert\n        /* \"#utility.yul\":4550:4602   */\n    tag_247:\n        /* \"#utility.yul\":4637:4646   */\n      dup4\n        /* \"#utility.yul\":4624:4647   */\n      calldataload\n        /* \"#utility.yul\":4690:4695   */\n      dup1\n        /* \"#utility.yul\":4683:4696   */\n      iszero\n        /* \"#utility.yul\":4676:4697   */\n      iszero\n        /* \"#utility.yul\":4669:4674   */\n      dup2\n        /* \"#utility.yul\":4666:4698   */\n      eq\n        /* \"#utility.yul\":4656:4716   */\n      tag_248\n      jumpi\n        /* \"#utility.yul\":4712:4713   */\n      0x00\n        /* \"#utility.yul\":4709:4710   */\n      dup1\n        /* \"#utility.yul\":4702:4714   */\n      revert\n        /* \"#utility.yul\":4656:4716   */\n    tag_248:\n        /* \"#utility.yul\":4735:4740   */\n      swap3\n      pop\n        /* \"#utility.yul\":4791:4793   */\n      0x20\n        /* \"#utility.yul\":4776:4794   */\n      dup5\n      add\n        /* \"#utility.yul\":4763:4795   */\n      calldataload\n        /* \"#utility.yul\":4818:4836   */\n      0xffffffffffffffff\n        /* \"#utility.yul\":4807:4837   */\n      dup2\n      gt\n        /* \"#utility.yul\":4804:4854   */\n      iszero\n      tag_249\n      jumpi\n        /* \"#utility.yul\":4850:4851   */\n      0x00\n        /* \"#utility.yul\":4847:4848   */\n      dup1\n        /* \"#utility.yul\":4840:4852   */\n      revert\n        /* \"#utility.yul\":4804:4854   */\n    tag_249:\n        /* \"#utility.yul\":4889:4978   */\n      tag_250\n        /* \"#utility.yul\":4970:4977   */\n      dup7\n        /* \"#utility.yul\":4961:4967   */\n      dup3\n        /* \"#utility.yul\":4950:4959   */\n      dup8\n        /* \"#utility.yul\":4946:4968   */\n      add\n        /* \"#utility.yul\":4889:4978   */\n      tag_211\n      jump\t// in\n    tag_250:\n        /* \"#utility.yul\":4400:5038   */\n      swap5\n      swap8\n        /* \"#utility.yul\":4997:5005   */\n      swap1\n      swap7\n      pop\n        /* \"#utility.yul\":4863:4978   */\n      swap4\n      swap5\n      pop\n      pop\n      pop\n      pop\n        /* \"#utility.yul\":4400:5038   */\n      jump\t// out\n        /* \"#utility.yul\":5043:5496   */\n    tag_52:\n        /* \"#utility.yul\":5322:5328   */\n      dup4\n        /* \"#utility.yul\":5311:5320   */\n      dup2\n        /* \"#utility.yul\":5304:5329   */\n      mstore\n        /* \"#utility.yul\":5365:5371   */\n      dup3\n        /* \"#utility.yul\":5360:5362   */\n      0x20\n        /* \"#utility.yul\":5349:5358   */\n      dup3\n        /* \"#utility.yul\":5345:5363   */\n      add\n        /* \"#utility.yul\":5338:5372   */\n      mstore\n        /* \"#utility.yul\":5408:5410   */\n      0x60\n        /* \"#utility.yul\":5403:5405   */\n      0x40\n        /* \"#utility.yul\":5392:5401   */\n      dup3\n        /* \"#utility.yul\":5388:5406   */\n      add\n        /* \"#utility.yul\":5381:5411   */\n      mstore\n        /* \"#utility.yul\":5285:5289   */\n      0x00\n        /* \"#utility.yul\":5428:5490   */\n      tag_252\n        /* \"#utility.yul\":5486:5488   */\n      0x60\n        /* \"#utility.yul\":5475:5484   */\n      dup4\n        /* \"#utility.yul\":5471:5489   */\n      add\n        /* \"#utility.yul\":5463:5469   */\n      dup5\n        /* \"#utility.yul\":5428:5490   */\n      tag_213\n      jump\t// in\n    tag_252:\n        /* \"#utility.yul\":5420:5490   */\n      swap6\n        /* \"#utility.yul\":5043:5496   */\n      swap5\n      pop\n      pop\n      pop\n      pop\n      pop\n      jump\t// out\n        /* \"#utility.yul\":5501:5810   */\n    tag_64:\n        /* \"#utility.yul\":5560:5566   */\n      0x00\n        /* \"#utility.yul\":5613:5615   */\n      0x20\n        /* \"#utility.yul\":5601:5610   */\n      dup3\n        /* \"#utility.yul\":5592:5599   */\n      dup5\n        /* \"#utility.yul\":5588:5611   */\n      sub\n        /* \"#utility.yul\":5584:5616   */\n      slt\n        /* \"#utility.yul\":5581:5633   */\n      iszero\n      tag_254\n      jumpi\n        /* \"#utility.yul\":5629:5630   */\n      0x00\n        /* \"#utility.yul\":5626:5627   */\n      dup1\n        /* \"#utility.yul\":5619:5631   */\n      revert\n        /* \"#utility.yul\":5581:5633   */\n    tag_254:\n        /* \"#utility.yul\":5668:5677   */\n      dup2\n        /* \"#utility.yul\":5655:5678   */\n      calldataload\n        /* \"#utility.yul\":5718:5760   */\n      0xffffffffffffffffffffffffffffffffffffffff\n        /* \"#utility.yul\":5711:5716   */\n      dup2\n        /* \"#utility.yul\":5707:5761   */\n      and\n        /* \"#utility.yul\":5700:5705   */\n      dup2\n        /* \"#utility.yul\":5697:5762   */\n      eq\n        /* \"#utility.yul\":5687:5780   */\n      tag_235\n      jumpi\n        /* \"#utility.yul\":5776:5777   */\n      0x00\n        /* \"#utility.yul\":5773:5774   */\n      dup1\n        /* \"#utility.yul\":5766:5778   */\n      revert\n        /* \"#utility.yul\":6530:6710   */\n    tag_96:\n        /* \"#utility.yul\":6589:6595   */\n      0x00\n        /* \"#utility.yul\":6642:6644   */\n      0x20\n        /* \"#utility.yul\":6630:6639   */\n      dup3\n        /* \"#utility.yul\":6621:6628   */\n      dup5\n        /* \"#utility.yul\":6617:6640   */\n      sub\n        /* \"#utility.yul\":6613:6645   */\n      slt\n        /* \"#utility.yul\":6610:6662   */\n      iszero\n      tag_262\n      jumpi\n        /* \"#utility.yul\":6658:6659   */\n      0x00\n        /* \"#utility.yul\":6655:6656   */\n      dup1\n        /* \"#utility.yul\":6648:6660   */\n      revert\n        /* \"#utility.yul\":6610:6662   */\n    tag_262:\n      pop\n        /* \"#utility.yul\":6681:6704   */\n      calldataload\n      swap2\n        /* \"#utility.yul\":6530:6710   */\n      swap1\n      pop\n      jump\t// out\n        /* \"#utility.yul\":6715:6899   */\n    tag_103:\n        /* \"#utility.yul\":6767:6844   */\n      0x4e487b7100000000000000000000000000000000000000000000000000000000\n        /* \"#utility.yul\":6764:6765   */\n      0x00\n        /* \"#utility.yul\":6757:6845   */\n      mstore\n        /* \"#utility.yul\":6864:6868   */\n      0x41\n        /* \"#utility.yul\":6861:6862   */\n      0x04\n        /* \"#utility.yul\":6854:6869   */\n      mstore\n        /* \"#utility.yul\":6888:6892   */\n      0x24\n        /* \"#utility.yul\":6885:6886   */\n      0x00\n        /* \"#utility.yul\":6878:6893   */\n      revert\n        /* \"#utility.yul\":6904:7088   */\n    tag_113:\n        /* \"#utility.yul\":6956:7033   */\n      0x4e487b7100000000000000000000000000000000000000000000000000000000\n        /* \"#utility.yul\":6953:6954   */\n      0x00\n        /* \"#utility.yul\":6946:7034   */\n      mstore\n        /* \"#utility.yul\":7053:7057   */\n      0x32\n        /* \"#utility.yul\":7050:7051   */\n      0x04\n        /* \"#utility.yul\":7043:7058   */\n      mstore\n        /* \"#utility.yul\":7077:7081   */\n      0x24\n        /* \"#utility.yul\":7074:7075   */\n      0x00\n        /* \"#utility.yul\":7067:7082   */\n      revert\n        /* \"#utility.yul\":7093:7477   */\n    tag_117:\n        /* \"#utility.yul\":7187:7191   */\n      0x00\n        /* \"#utility.yul\":7245:7256   */\n      dup3\n        /* \"#utility.yul\":7232:7257   */\n      calldataload\n        /* \"#utility.yul\":7335:7401   */\n      0xffffffffffffffffffffffffffffffffffffffffffffffffffffffffffffff81\n        /* \"#utility.yul\":7324:7332   */\n      dup4\n        /* \"#utility.yul\":7308:7322   */\n      calldatasize\n        /* \"#utility.yul\":7304:7333   */\n      sub\n        /* \"#utility.yul\":7300:7402   */\n      add\n        /* \"#utility.yul\":7280:7298   */\n      dup2\n        /* \"#utility.yul\":7276:7403   */\n      slt\n        /* \"#utility.yul\":7266:7421   */\n      tag_266\n      jumpi\n        /* \"#utility.yul\":7417:7418   */\n      0x00\n        /* \"#utility.yul\":7414:7415   */\n      dup1\n        /* \"#utility.yul\":7407:7419   */\n      revert\n        /* \"#utility.yul\":7266:7421   */\n    tag_266:\n        /* \"#utility.yul\":7438:7471   */\n      swap2\n      swap1\n      swap2\n      add\n      swap3\n        /* \"#utility.yul\":7093:7477   */\n      swap2\n      pop\n      pop\n      jump\t// out\n        /* \"#utility.yul\":7482:8062   */\n    tag_120:\n        /* \"#utility.yul\":7559:7563   */\n      0x00\n        /* \"#utility.yul\":7565:7571   */\n      dup1\n        /* \"#utility.yul\":7625:7636   */\n      dup4\n        /* \"#utility.yul\":7612:7637   */\n      calldataload\n        /* \"#utility.yul\":7715:7781   */\n      0xffffffffffffffffffffffffffffffffffffffffffffffffffffffffffffffe1\n        /* \"#utility.yul\":7704:7712   */\n      dup5\n        /* \"#utility.yul\":7688:7702   */\n      calldatasize\n        /* \"#utility.yul\":7684:7713   */\n      sub\n        /* \"#utility.yul\":7680:7782   */\n      add\n        /* \"#utility.yul\":7660:7678   */\n      dup2\n        /* \"#utility.yul\":7656:7783   */\n      slt\n        /* \"#utility.yul\":7646:7801   */\n      tag_268\n      jumpi\n        /* \"#utility.yul\":7797:7798   */\n      0x00\n        /* \"#utility.yul\":7794:7795   */\n      dup1\n        /* \"#utility.yul\":7787:7799   */\n      revert\n        /* \"#utility.yul\":7646:7801   */\n    tag_268:\n        /* \"#utility.yul\":7824:7857   */\n      dup4\n      add\n        /* \"#utility.yul\":7876:7896   */\n      dup1\n      calldataload\n      swap2\n      pop\n        /* \"#utility.yul\":7919:7937   */\n      0xffffffffffffffff\n        /* \"#utility.yul\":7908:7938   */\n      dup3\n      gt\n        /* \"#utility.yul\":7905:7955   */\n      iszero\n      tag_269\n      jumpi\n        /* \"#utility.yul\":7951:7952   */\n      0x00\n        /* \"#utility.yul\":7948:7949   */\n      dup1\n        /* \"#utility.yul\":7941:7953   */\n      revert\n        /* \"#utility.yul\":7905:7955   */\n    tag_269:\n        /* \"#utility.yul\":7984:7988   */\n      0x20\n        /* \"#utility.yul\":7972:7989   */\n      add\n      swap2\n      pop\n        /* \"#utility.yul\":8015:8029   */\n      calldatasize\n        /* \"#utility.yul\":8011:8038   */\n      dup2\n      swap1\n      sub\n        /* \"#utility.yul\":8001:8039   */\n      dup3\n      sgt\n        /* \"#utility.yul\":7998:8056   */\n      iszero\n      tag_219\n      jumpi\n        /* \"#utility.yul\":8052:8053   */\n      0x00\n        /* \"#utility.yul\":8049:8050   */\n      dup1\n        /* \"#utility.yul\":8042:8054   */\n      revert\n        /* \"#utility.yul\":8067:8338   */\n    tag_122:\n        /* \"#utility.yul\":8250:8256   */\n      dup2\n        /* \"#utility.yul\":8242:8248   */\n      dup4\n        /* \"#utility.yul\":8237:8240   */\n      dup3\n        /* \"#utility.yul\":8224:8257   */\n      calldatacopy\n        /* \"#utility.yul\":8206:8209   */\n      0x00\n        /* \"#utility.yul\":8276:8292   */\n      swap2\n      add\n        /* \"#utility.yul\":8301:8314   */\n      swap1\n      dup2\n      mstore\n        /* \"#utility.yul\":8276:8292   */\n      swap2\n        /* \"#utility.yul\":8067:8338   */\n      swap1\n      pop\n      jump\t// out\n        /* \"#utility.yul\":8698:9075   */\n    tag_141:\n        /* \"#utility.yul\":8785:8789   */\n      0x00\n        /* \"#utility.yul\":8843:8854   */\n      dup3\n        /* \"#utility.yul\":8830:8855   */\n      calldataload\n        /* \"#utility.yul\":8933:8999   */\n      0xffffffffffffffffffffffffffffffffffffffffffffffffffffffffffffffc1\n        /* \"#utility.yul\":8922:8930   */\n      dup4\n        /* \"#utility.yul\":8906:8920   */\n      calldatasize\n        /* \"#utility.yul\":8902:8931   */\n      sub\n        /* \"#utility.yul\":8898:9000   */\n      add\n        /* \"#utility.yul\":8878:8896   */\n      dup2\n        /* \"#utility.yul\":8874:9001   */\n      slt\n        /* \"#utility.yul\":8864:9019   */\n      tag_266\n      jumpi\n        /* \"#utility.yul\":9015:9016   */\n      0x00\n        /* \"#utility.yul\":9012:9013   */\n      dup1\n        /* \"#utility.yul\":9005:9017   */\n      revert\n        /* \"#utility.yul\":9432:9811   */\n    tag_175:\n        /* \"#utility.yul\":9521:9525   */\n      0x00\n        /* \"#utility.yul\":9579:9590   */\n      dup3\n        /* \"#utility.yul\":9566:9591   */\n      calldataload\n        /* \"#utility.yul\":9669:9735   */\n      0xffffffffffffffffffffffffffffffffffffffffffffffffffffffffffffffa1\n        /* \"#utility.yul\":9658:9666   */\n      dup4\n        /* \"#utility.yul\":9642:9656   */\n      calldatasize\n        /* \"#utility.yul\":9638:9667   */\n      sub\n        /* \"#utility.yul\":9634:9736   */\n      add\n        /* \"#utility.yul\":9614:9632   */\n      dup2\n        /* \"#utility.yul\":9610:9737   */\n      slt\n        /* \"#utility.yul\":9600:9755   */\n      tag_266\n      jumpi\n        /* \"#utility.yul\":9751:9752   */\n      0x00\n        /* \"#utility.yul\":9748:9749   */\n      dup1\n        /* \"#utility.yul\":9741:9753   */\n      revert\n\n    auxdata: 0xa26469706673582212204bf3b96d7f294cb68d6292466dba5c4d9104a4c99ac3615f7672b2d839947e0e64736f6c634300080c0033\n}\n",
				"bytecode": {
					"linkReferences": {},
					"object": "608060405234801561001057600080fd5b50610ee0806100206000396000f3fe6080604052600436106100f35760003560e01c80634d2301cc1161008a578063a8b0574e11610059578063a8b0574e1461025a578063bce38bd714610275578063c3077fa914610288578063ee82ac5e1461029b57600080fd5b80634d2301cc146101ec57806372425d9d1461022157806382ad56cb1461023457806386d516e81461024757600080fd5b80633408e470116100c65780633408e47014610191578063399542e9146101a45780633e64a696146101c657806342cbb15c146101d957600080fd5b80630f28c97d146100f8578063174dea711461011a578063252dba421461013a57806327e86d6e1461015b575b600080fd5b34801561010457600080fd5b50425b6040519081526020015b60405180910390f35b61012d610128366004610a85565b6102ba565b6040516101119190610bbe565b61014d610148366004610a85565b6104ef565b604051610111929190610bd8565b34801561016757600080fd5b50437fffffffffffffffffffffffffffffffffffffffffffffffffffffffffffffffff0140610107565b34801561019d57600080fd5b5046610107565b6101b76101b2366004610c60565b610690565b60405161011193929190610cba565b3480156101d257600080fd5b5048610107565b3480156101e557600080fd5b5043610107565b3480156101f857600080fd5b50610107610207366004610ce2565b73ffffffffffffffffffffffffffffffffffffffff163190565b34801561022d57600080fd5b5044610107565b61012d610242366004610a85565b6106ab565b34801561025357600080fd5b5045610107565b34801561026657600080fd5b50604051418152602001610111565b61012d610283366004610c60565b61085a565b6101b7610296366004610a85565b610a1a565b3480156102a757600080fd5b506101076102b6366004610d18565b4090565b60606000828067ffffffffffffffff8111156102d8576102d8610d31565b60405190808252806020026020018201604052801561031e57816020015b6040805180820190915260008152606060208201528152602001906001900390816102f65790505b5092503660005b8281101561047757600085828151811061034157610341610d60565b6020026020010151905087878381811061035d5761035d610d60565b905060200281019061036f9190610d8f565b6040810135958601959093506103886020850185610ce2565b73ffffffffffffffffffffffffffffffffffffffff16816103ac6060870187610dcd565b6040516103ba929190610e32565b60006040518083038185875af1925050503d80600081146103f7576040519150601f19603f3d011682016040523d82523d6000602084013e6103fc565b606091505b50602080850191909152901515808452908501351761046d577f08c379a000000000000000000000000000000000000000000000000000000000600052602060045260176024527f4d756c746963616c6c333a2063616c6c206661696c656400000000000000000060445260846000fd5b5050600101610325565b508234146104e6576040517f08c379a000000000000000000000000000000000000000000000000000000000815260206004820152601a60248201527f4d756c746963616c6c333a2076616c7565206d69736d6174636800000000000060448201526064015b60405180910390fd5b50505092915050565b436060828067ffffffffffffffff81111561050c5761050c610d31565b60405190808252806020026020018201604052801561053f57816020015b606081526020019060019003908161052a5790505b5091503660005b8281101561068657600087878381811061056257610562610d60565b90506020028101906105749190610e42565b92506105836020840184610ce2565b73ffffffffffffffffffffffffffffffffffffffff166105a66020850185610dcd565b6040516105b4929190610e32565b6000604051808303816000865af19150503d80600081146105f1576040519150601f19603f3d011682016040523d82523d6000602084013e6105f6565b606091505b5086848151811061060957610609610d60565b602090810291909101015290508061067d576040517f08c379a000000000000000000000000000000000000000000000000000000000815260206004820152601760248201527f4d756c746963616c6c333a2063616c6c206661696c656400000000000000000060448201526064016104dd565b50600101610546565b5050509250929050565b43804060606106a086868661085a565b905093509350939050565b6060818067ffffffffffffffff8111156106c7576106c7610d31565b60405190808252806020026020018201604052801561070d57816020015b6040805180820190915260008152606060208201528152602001906001900390816106e55790505b5091503660005b828110156104e657600084828151811061073057610730610d60565b6020026020010151905086868381811061074c5761074c610d60565b905060200281019061075e9190610e76565b925061076d6020840184610ce2565b73ffffffffffffffffffffffffffffffffffffffff166107906040850185610dcd565b60405161079e929190610e32565b6000604051808303816000865af19150503d80600081146107db576040519150601f19603f3d011682016040523d82523d6000602084013e6107e0565b606091505b506020808401919091529015158083529084013517610851577f08c379a000000000000000000000000000000000000000000000000000000000600052602060045260176024527f4d756c746963616c6c333a2063616c6c206661696c656400000000000000000060445260646000fd5b50600101610714565b6060818067ffffffffffffffff81111561087657610876610d31565b6040519080825280602002602001820160405280156108bc57816020015b6040805180820190915260008152606060208201528152602001906001900390816108945790505b5091503660005b82811015610a105760008482815181106108df576108df610d60565b602002602001015190508686838181106108fb576108fb610d60565b905060200281019061090d9190610e42565b925061091c6020840184610ce2565b73ffffffffffffffffffffffffffffffffffffffff1661093f6020850185610dcd565b60405161094d929190610e32565b6000604051808303816000865af19150503d806000811461098a576040519150601f19603f3d011682016040523d82523d6000602084013e61098f565b606091505b506020830152151581528715610a07578051610a07576040517f08c379a000000000000000000000000000000000000000000000000000000000815260206004820152601760248201527f4d756c746963616c6c333a2063616c6c206661696c656400000000000000000060448201526064016104dd565b506001016108c3565b5050509392505050565b6000806060610a2b60018686610690565b919790965090945092505050565b60008083601f840112610a4b57600080fd5b50813567ffffffffffffffff811115610a6357600080fd5b6020830191508360208260051b8501011115610a7e57600080fd5b9250929050565b60008060208385031215610a9857600080fd5b823567ffffffffffffffff811115610aaf57600080fd5b610abb85828601610a39565b90969095509350505050565b6000815180845260005b81811015610aed57602081850181015186830182015201610ad1565b81811115610aff576000602083870101525b50601f017fffffffffffffffffffffffffffffffffffffffffffffffffffffffffffffffe0169290920160200192915050565b600082825180855260208086019550808260051b84010181860160005b84811015610bb1578583037fffffffffffffffffffffffffffffffffffffffffffffffffffffffffffffffe001895281518051151584528401516040858501819052610b9d81860183610ac7565b9a86019a9450505090830190600101610b4f565b5090979650505050505050565b602081526000610bd16020830184610b32565b9392505050565b600060408201848352602060408185015281855180845260608601915060608160051b870101935082870160005b82811015610c52577fffffffffffffffffffffffffffffffffffffffffffffffffffffffffffffffa0888703018452610c40868351610ac7565b95509284019290840190600101610c06565b509398975050505050505050565b600080600060408486031215610c7557600080fd5b83358015158114610c8557600080fd5b9250602084013567ffffffffffffffff811115610ca157600080fd5b610cad86828701610a39565b9497909650939450505050565b838152826020820152606060408201526000610cd96060830184610b32565b95945050505050565b600060208284031215610cf457600080fd5b813573ffffffffffffffffffffffffffffffffffffffff81168114610bd157600080fd5b600060208284031215610d2a57600080fd5b5035919050565b7f4e487b7100000000000000000000000000000000000000000000000000000000600052604160045260246000fd5b7f4e487b7100000000000000000000000000000000000000000000000000000000600052603260045260246000fd5b600082357fffffffffffffffffffffffffffffffffffffffffffffffffffffffffffffff81833603018112610dc357600080fd5b9190910192915050565b60008083357fffffffffffffffffffffffffffffffffffffffffffffffffffffffffffffffe1843603018112610e0257600080fd5b83018035915067ffffffffffffffff821115610e1d57600080fd5b602001915036819003821315610a7e57600080fd5b8183823760009101908152919050565b600082357fffffffffffffffffffffffffffffffffffffffffffffffffffffffffffffffc1833603018112610dc357600080fd5b600082357fffffffffffffffffffffffffffffffffffffffffffffffffffffffffffffffa1833603018112610dc357600080fdfea26469706673582212204bf3b96d7f294cb68d6292466dba5c4d9104a4c99ac3615f7672b2d839947e0e64736f6c634300080c0033",
					"opcodes": "PUSH1 0x80 PUSH1 0x40 MSTORE CALLVALUE DUP1 ISZERO PUSH2 0x10 JUMPI PUSH1 0x0 DUP1 REVERT JUMPDEST POP PUSH2 0xEE0 DUP1 PUSH2 0x20 PUSH1 0x0 CODECOPY PUSH1 0x0 RETURN INVALID PUSH1 0x80 PUSH1 0x40 MSTORE PUSH1 0x4 CALLDATASIZE LT PUSH2 0xF3 JUMPI PUSH1 0x0 CALLDATALOAD PUSH1 0xE0 SHR DUP1 PUSH4 0x4D2301CC GT PUSH2 0x8A JUMPI DUP1 PUSH4 0xA8B0574E GT PUSH2 0x59 JUMPI DUP1 PUSH4 0xA8B0574E EQ PUSH2 0x25A JUMPI DUP1 PUSH4 0xBCE38BD7 EQ PUSH2 0x275 JUMPI DUP1 PUSH4 0xC3077FA9 EQ PUSH2 0x288 JUMPI DUP1 PUSH4 0xEE82AC5E EQ PUSH2 0x29B JUMPI PUSH1 0x0 DUP1 REVERT JUMPDEST DUP1 PUSH4 0x4D2301CC EQ PUSH2 0x1EC JUMPI DUP1 PUSH4 0x72425D9D EQ PUSH2 0x221 JUMPI DUP1 PUSH4 0x82AD56CB EQ PUSH2 0x234 JUMPI DUP1 PUSH4 0x86D516E8 EQ PUSH2 0x247 JUMPI PUSH1 0x0 DUP1 REVERT JUMPDEST DUP1 PUSH4 0x3408E470 GT PUSH2 0xC6 JUMPI DUP1 PUSH4 0x3408E470 EQ PUSH2 0x191 JUMPI DUP1 PUSH4 0x399542E9 EQ PUSH2 0x1A4 JUMPI DUP1 PUSH4 0x3E64A696 EQ PUSH2 0x1C6 JUMPI DUP1 PUSH4 0x42CBB15C EQ PUSH2 0x1D9 JUMPI PUSH1 0x0 DUP1 REVERT JUMPDEST DUP1 PUSH4 0xF28C97D EQ PUSH2 0xF8 JUMPI DUP1 PUSH4 0x174DEA71 EQ PUSH2 0x11A JUMPI DUP1 PUSH4 0x252DBA42 EQ PUSH2 0x13A JUMPI DUP1 PUSH4 0x27E86D6E EQ PUSH2 0x15B JUMPI JUMPDEST PUSH1 0x0 DUP1 REVERT JUMPDEST CALLVALUE DUP1 ISZERO PUSH2 0x104 JUMPI PUSH1 0x0 DUP1 REVERT JUMPDEST POP TIMESTAMP JUMPDEST PUSH1 0x40 MLOAD SWAP1 DUP2 MSTORE PUSH1 0x20 ADD JUMPDEST PUSH1 0x40 MLOAD DUP1 SWAP2 SUB SWAP1 RETURN JUMPDEST PUSH2 0x12D PUSH2 0x128 CALLDATASIZE PUSH1 0x4 PUSH2 0xA85 JUMP JUMPDEST PUSH2 0x2BA JUMP JUMPDEST PUSH1 0x40 MLOAD PUSH2 0x111 SWAP2 SWAP1 PUSH2 0xBBE JUMP JUMPDEST PUSH2 0x14D PUSH2 0x148 CALLDATASIZE PUSH1 0x4 PUSH2 0xA85 JUMP JUMPDEST PUSH2 0x4EF JUMP JUMPDEST PUSH1 0x40 MLOAD PUSH2 0x111 SWAP3 SWAP2 SWAP1 PUSH2 0xBD8 JUMP JUMPDEST CALLVALUE DUP1 ISZERO PUSH2 0x167 JUMPI PUSH1 0x0 DUP1 REVERT JUMPDEST POP NUMBER PUSH32 0xFFFFFFFFFFFFFFFFFFFFFFFFFFFFFFFFFFFFFFFFFFFFFFFFFFFFFFFFFFFFFFFF ADD BLOCKHASH PUSH2 0x107 JUMP JUMPDEST CALLVALUE DUP1 ISZERO PUSH2 0x19D JUMPI PUSH1 0x0 DUP1 REVERT JUMPDEST POP CHAINID PUSH2 0x107 JUMP JUMPDEST PUSH2 0x1B7 PUSH2 0x1B2 CALLDATASIZE PUSH1 0x4 PUSH2 0xC60 JUMP JUMPDEST PUSH2 0x690 JUMP JUMPDEST PUSH1 0x40 MLOAD PUSH2 0x111 SWAP4 SWAP3 SWAP2 SWAP1 PUSH2 0xCBA JUMP JUMPDEST CALLVALUE DUP1 ISZERO PUSH2 0x1D2 JUMPI PUSH1 0x0 DUP1 REVERT JUMPDEST POP BASEFEE PUSH2 0x107 JUMP JUMPDEST CALLVALUE DUP1 ISZERO PUSH2 0x1E5 JUMPI PUSH1 0x0 DUP1 REVERT JUMPDEST POP NUMBER PUSH2 0x107 JUMP JUMPDEST CALLVALUE DUP1 ISZERO PUSH2 0x1F8 JUMPI PUSH1 0x0 DUP1 REVERT JUMPDEST POP PUSH2 0x107 PUSH2 0x207 CALLDATASIZE PUSH1 0x4 PUSH2 0xCE2 JUMP JUMPDEST PUSH20 0xFFFFFFFFFFFFFFFFFFFFFFFFFFFFFFFFFFFFFFFF AND BALANCE SWAP1 JUMP JUMPDEST CALLVALUE DUP1 ISZERO PUSH2 0x22D JUMPI PUSH1 0x0 DUP1 REVERT JUMPDEST POP DIFFICULTY PUSH2 0x107 JUMP JUMPDEST PUSH2 0x12D PUSH2 0x242 CALLDATASIZE PUSH1 0x4 PUSH2 0xA85 JUMP JUMPDEST PUSH2 0x6AB JUMP JUMPDEST CALLVALUE DUP1 ISZERO PUSH2 0x253 JUMPI PUSH1 0x0 DUP1 REVERT JUMPDEST POP GASLIMIT PUSH2 0x107 JUMP JUMPDEST CALLVALUE DUP1 ISZERO PUSH2 0x266 JUMPI PUSH1 0x0 DUP1 REVERT JUMPDEST POP PUSH1 0x40 MLOAD COINBASE DUP2 MSTORE PUSH1 0x20 ADD PUSH2 0x111 JUMP JUMPDEST PUSH2 0x12D PUSH2 0x283 CALLDATASIZE PUSH1 0x4 PUSH2 0xC60 JUMP JUMPDEST PUSH2 0x85A JUMP JUMPDEST PUSH2 0x1B7 PUSH2 0x296 CALLDATASIZE PUSH1 0x4 PUSH2 0xA85 JUMP JUMPDEST PUSH2 0xA1A JUMP JUMPDEST CALLVALUE DUP1 ISZERO PUSH2 0x2A7 JUMPI PUSH1 0x0 DUP1 REVERT JUMPDEST POP PUSH2 0x107 PUSH2 0x2B6 CALLDATASIZE PUSH1 0x4 PUSH2 0xD18 JUMP JUMPDEST BLOCKHASH SWAP1 JUMP JUMPDEST PUSH1 0x60 PUSH1 0x0 DUP3 DUP1 PUSH8 0xFFFFFFFFFFFFFFFF DUP2 GT ISZERO PUSH2 0x2D8 JUMPI PUSH2 0x2D8 PUSH2 0xD31 JUMP JUMPDEST PUSH1 0x40 MLOAD SWAP1 DUP1 DUP3 MSTORE DUP1 PUSH1 0x20 MUL PUSH1 0x20 ADD DUP3 ADD PUSH1 0x40 MSTORE DUP1 ISZERO PUSH2 0x31E JUMPI DUP2 PUSH1 0x20 ADD JUMPDEST PUSH1 0x40 DUP1 MLOAD DUP1 DUP3 ADD SWAP1 SWAP2 MSTORE PUSH1 0x0 DUP2 MSTORE PUSH1 0x60 PUSH1 0x20 DUP3 ADD MSTORE DUP2 MSTORE PUSH1 0x20 ADD SWAP1 PUSH1 0x1 SWAP1 SUB SWAP1 DUP2 PUSH2 0x2F6 JUMPI SWAP1 POP JUMPDEST POP SWAP3 POP CALLDATASIZE PUSH1 0x0 JUMPDEST DUP3 DUP2 LT ISZERO PUSH2 0x477 JUMPI PUSH1 0x0 DUP6 DUP3 DUP2 MLOAD DUP2 LT PUSH2 0x341 JUMPI PUSH2 0x341 PUSH2 0xD60 JUMP JUMPDEST PUSH1 0x20 MUL PUSH1 0x20 ADD ADD MLOAD SWAP1 POP DUP8 DUP8 DUP4 DUP2 DUP2 LT PUSH2 0x35D JUMPI PUSH2 0x35D PUSH2 0xD60 JUMP JUMPDEST SWAP1 POP PUSH1 0x20 MUL DUP2 ADD SWAP1 PUSH2 0x36F SWAP2 SWAP1 PUSH2 0xD8F JUMP JUMPDEST PUSH1 0x40 DUP2 ADD CALLDATALOAD SWAP6 DUP7 ADD SWAP6 SWAP1 SWAP4 POP PUSH2 0x388 PUSH1 0x20 DUP6 ADD DUP6 PUSH2 0xCE2 JUMP JUMPDEST PUSH20 0xFFFFFFFFFFFFFFFFFFFFFFFFFFFFFFFFFFFFFFFF AND DUP2 PUSH2 0x3AC PUSH1 0x60 DUP8 ADD DUP8 PUSH2 0xDCD JUMP JUMPDEST PUSH1 0x40 MLOAD PUSH2 0x3BA SWAP3 SWAP2 SWAP1 PUSH2 0xE32 JUMP JUMPDEST PUSH1 0x0 PUSH1 0x40 MLOAD DUP1 DUP4 SUB DUP2 DUP6 DUP8 GAS CALL SWAP3 POP POP POP RETURNDATASIZE DUP1 PUSH1 0x0 DUP2 EQ PUSH2 0x3F7 JUMPI PUSH1 0x40 MLOAD SWAP2 POP PUSH1 0x1F NOT PUSH1 0x3F RETURNDATASIZE ADD AND DUP3 ADD PUSH1 0x40 MSTORE RETURNDATASIZE DUP3 MSTORE RETURNDATASIZE PUSH1 0x0 PUSH1 0x20 DUP5 ADD RETURNDATACOPY PUSH2 0x3FC JUMP JUMPDEST PUSH1 0x60 SWAP2 POP JUMPDEST POP PUSH1 0x20 DUP1 DUP6 ADD SWAP2 SWAP1 SWAP2 MSTORE SWAP1 ISZERO ISZERO DUP1 DUP5 MSTORE SWAP1 DUP6 ADD CALLDATALOAD OR PUSH2 0x46D JUMPI PUSH32 0x8C379A000000000000000000000000000000000000000000000000000000000 PUSH1 0x0 MSTORE PUSH1 0x20 PUSH1 0x4 MSTORE PUSH1 0x17 PUSH1 0x24 MSTORE PUSH32 0x4D756C746963616C6C333A2063616C6C206661696C6564000000000000000000 PUSH1 0x44 MSTORE PUSH1 0x84 PUSH1 0x0 REVERT JUMPDEST POP POP PUSH1 0x1 ADD PUSH2 0x325 JUMP JUMPDEST POP DUP3 CALLVALUE EQ PUSH2 0x4E6 JUMPI PUSH1 0x40 MLOAD PUSH32 0x8C379A000000000000000000000000000000000000000000000000000000000 DUP2 MSTORE PUSH1 0x20 PUSH1 0x4 DUP3 ADD MSTORE PUSH1 0x1A PUSH1 0x24 DUP3 ADD MSTORE PUSH32 0x4D756C746963616C6C333A2076616C7565206D69736D61746368000000000000 PUSH1 0x44 DUP3 ADD MSTORE PUSH1 0x64 ADD JUMPDEST PUSH1 0x40 MLOAD DUP1 SWAP2 SUB SWAP1 REVERT JUMPDEST POP POP POP SWAP3 SWAP2 POP POP JUMP JUMPDEST NUMBER PUSH1 0x60 DUP3 DUP1 PUSH8 0xFFFFFFFFFFFFFFFF DUP2 GT ISZERO PUSH2 0x50C JUMPI PUSH2 0x50C PUSH2 0xD31 JUMP JUMPDEST PUSH1 0x40 MLOAD SWAP1 DUP1 DUP3 MSTORE DUP1 PUSH1 0x20 MUL PUSH1 0x20 ADD DUP3 ADD PUSH1 0x40 MSTORE DUP1 ISZERO PUSH2 0x53F JUMPI DUP2 PUSH1 0x20 ADD JUMPDEST PUSH1 0x60 DUP2 MSTORE PUSH1 0x20 ADD SWAP1 PUSH1 0x1 SWAP1 SUB SWAP1 DUP2 PUSH2 0x52A JUMPI SWAP1 POP JUMPDEST POP SWAP2 POP CALLDATASIZE PUSH1 0x0 JUMPDEST DUP3 DUP2 LT ISZERO PUSH2 0x686 JUMPI PUSH1 0x0 DUP8 DUP8 DUP4 DUP2 DUP2 LT PUSH2 0x562 JUMPI PUSH2 0x562 PUSH2 0xD60 JUMP JUMPDEST SWAP1 POP PUSH1 0x20 MUL DUP2 ADD SWAP1 PUSH2 0x574 SWAP2 SWAP1 PUSH2 0xE42 JUMP JUMPDEST SWAP3 POP PUSH2 0x583 PUSH1 0x20 DUP5 ADD DUP5 PUSH2 0xCE2 JUMP JUMPDEST PUSH20 0xFFFFFFFFFFFFFFFFFFFFFFFFFFFFFFFFFFFFFFFF AND PUSH2 0x5A6 PUSH1 0x20 DUP6 ADD DUP6 PUSH2 0xDCD JUMP JUMPDEST PUSH1 0x40 MLOAD PUSH2 0x5B4 SWAP3 SWAP2 SWAP1 PUSH2 0xE32 JUMP JUMPDEST PUSH1 0x0 PUSH1 0x40 MLOAD DUP1 DUP4 SUB DUP2 PUSH1 0x0 DUP7 GAS CALL SWAP2 POP POP RETURNDATASIZE DUP1 PUSH1 0x0 DUP2 EQ PUSH2 0x5F1 JUMPI PUSH1 0x40 MLOAD SWAP2 POP PUSH1 0x1F NOT PUSH1 0x3F RETURNDATASIZE ADD AND DUP3 ADD PUSH1 0x40 MSTORE RETURNDATASIZE DUP3 MSTORE RETURNDATASIZE PUSH1 0x0 PUSH1 0x20 DUP5 ADD RETURNDATACOPY PUSH2 0x5F6 JUMP JUMPDEST PUSH1 0x60 SWAP2 POP JUMPDEST POP DUP7 DUP5 DUP2 MLOAD DUP2 LT PUSH2 0x609 JUMPI PUSH2 0x609 PUSH2 0xD60 JUMP JUMPDEST PUSH1 0x20 SWAP1 DUP2 MUL SWAP2 SWAP1 SWAP2 ADD ADD MSTORE SWAP1 POP DUP1 PUSH2 0x67D JUMPI PUSH1 0x40 MLOAD PUSH32 0x8C379A000000000000000000000000000000000000000000000000000000000 DUP2 MSTORE PUSH1 0x20 PUSH1 0x4 DUP3 ADD MSTORE PUSH1 0x17 PUSH1 0x24 DUP3 ADD MSTORE PUSH32 0x4D756C746963616C6C333A2063616C6C206661696C6564000000000000000000 PUSH1 0x44 DUP3 ADD MSTORE PUSH1 0x64 ADD PUSH2 0x4DD JUMP JUMPDEST POP PUSH1 0x1 ADD PUSH2 0x546 JUMP JUMPDEST POP POP POP SWAP3 POP SWAP3 SWAP1 POP JUMP JUMPDEST NUMBER DUP1 BLOCKHASH PUSH1 0x60 PUSH2 0x6A0 DUP7 DUP7 DUP7 PUSH2 0x85A JUMP JUMPDEST SWAP1 POP SWAP4 POP SWAP4 POP SWAP4 SWAP1 POP JUMP JUMPDEST PUSH1 0x60 DUP2 DUP1 PUSH8 0xFFFFFFFFFFFFFFFF DUP2 GT ISZERO PUSH2 0x6C7 JUMPI PUSH2 0x6C7 PUSH2 0xD31 JUMP JUMPDEST PUSH1 0x40 MLOAD SWAP1 DUP1 DUP3 MSTORE DUP1 PUSH1 0x20 MUL PUSH1 0x20 ADD DUP3 ADD PUSH1 0x40 MSTORE DUP1 ISZERO PUSH2 0x70D JUMPI DUP2 PUSH1 0x20 ADD JUMPDEST PUSH1 0x40 DUP1 MLOAD DUP1 DUP3 ADD SWAP1 SWAP2 MSTORE PUSH1 0x0 DUP2 MSTORE PUSH1 0x60 PUSH1 0x20 DUP3 ADD MSTORE DUP2 MSTORE PUSH1 0x20 ADD SWAP1 PUSH1 0x1 SWAP1 SUB SWAP1 DUP2 PUSH2 0x6E5 JUMPI SWAP1 POP JUMPDEST POP SWAP2 POP CALLDATASIZE PUSH1 0x0 JUMPDEST DUP3 DUP2 LT ISZERO PUSH2 0x4E6 JUMPI PUSH1 0x0 DUP5 DUP3 DUP2 MLOAD DUP2 LT PUSH2 0x730 JUMPI PUSH2 0x730 PUSH2 0xD60 JUMP JUMPDEST PUSH1 0x20 MUL PUSH1 0x20 ADD ADD MLOAD SWAP1 POP DUP7 DUP7 DUP4 DUP2 DUP2 LT PUSH2 0x74C JUMPI PUSH2 0x74C PUSH2 0xD60 JUMP JUMPDEST SWAP1 POP PUSH1 0x20 MUL DUP2 ADD SWAP1 PUSH2 0x75E SWAP2 SWAP1 PUSH2 0xE76 JUMP JUMPDEST SWAP3 POP PUSH2 0x76D PUSH1 0x20 DUP5 ADD DUP5 PUSH2 0xCE2 JUMP JUMPDEST PUSH20 0xFFFFFFFFFFFFFFFFFFFFFFFFFFFFFFFFFFFFFFFF AND PUSH2 0x790 PUSH1 0x40 DUP6 ADD DUP6 PUSH2 0xDCD JUMP JUMPDEST PUSH1 0x40 MLOAD PUSH2 0x79E SWAP3 SWAP2 SWAP1 PUSH2 0xE32 JUMP JUMPDEST PUSH1 0x0 PUSH1 0x40 MLOAD DUP1 DUP4 SUB DUP2 PUSH1 0x0 DUP7 GAS CALL SWAP2 POP POP RETURNDATASIZE DUP1 PUSH1 0x0 DUP2 EQ PUSH2 0x7DB JUMPI PUSH1 0x40 MLOAD SWAP2 POP PUSH1 0x1F NOT PUSH1 0x3F RETURNDATASIZE ADD AND DUP3 ADD PUSH1 0x40 MSTORE RETURNDATASIZE DUP3 MSTORE RETURNDATASIZE PUSH1 0x0 PUSH1 0x20 DUP5 ADD RETURNDATACOPY PUSH2 0x7E0 JUMP JUMPDEST PUSH1 0x60 SWAP2 POP JUMPDEST POP PUSH1 0x20 DUP1 DUP5 ADD SWAP2 SWAP1 SWAP2 MSTORE SWAP1 ISZERO ISZERO DUP1 DUP4 MSTORE SWAP1 DUP5 ADD CALLDATALOAD OR PUSH2 0x851 JUMPI PUSH32 0x8C379A000000000000000000000000000000000000000000000000000000000 PUSH1 0x0 MSTORE PUSH1 0x20 PUSH1 0x4 MSTORE PUSH1 0x17 PUSH1 0x24 MSTORE PUSH32 0x4D756C746963616C6C333A2063616C6C206661696C6564000000000000000000 PUSH1 0x44 MSTORE PUSH1 0x64 PUSH1 0x0 REVERT JUMPDEST POP PUSH1 0x1 ADD PUSH2 0x714 JUMP JUMPDEST PUSH1 0x60 DUP2 DUP1 PUSH8 0xFFFFFFFFFFFFFFFF DUP2 GT ISZERO PUSH2 0x876 JUMPI PUSH2 0x876 PUSH2 0xD31 JUMP JUMPDEST PUSH1 0x40 MLOAD SWAP1 DUP1 DUP3 MSTORE DUP1 PUSH1 0x20 MUL PUSH1 0x20 ADD DUP3 ADD PUSH1 0x40 MSTORE DUP1 ISZERO PUSH2 0x8BC JUMPI DUP2 PUSH1 0x20 ADD JUMPDEST PUSH1 0x40 DUP1 MLOAD DUP1 DUP3 ADD SWAP1 SWAP2 MSTORE PUSH1 0x0 DUP2 MSTORE PUSH1 0x60 PUSH1 0x20 DUP3 ADD MSTORE DUP2 MSTORE PUSH1 0x20 ADD SWAP1 PUSH1 0x1 SWAP1 SUB SWAP1 DUP2 PUSH2 0x894 JUMPI SWAP1 POP JUMPDEST POP SWAP2 POP CALLDATASIZE PUSH1 0x0 JUMPDEST DUP3 DUP2 LT ISZERO PUSH2 0xA10 JUMPI PUSH1 0x0 DUP5 DUP3 DUP2 MLOAD DUP2 LT PUSH2 0x8DF JUMPI PUSH2 0x8DF PUSH2 0xD60 JUMP JUMPDEST PUSH1 0x20 MUL PUSH1 0x20 ADD ADD MLOAD SWAP1 POP DUP7 DUP7 DUP4 DUP2 DUP2 LT PUSH2 0x8FB JUMPI PUSH2 0x8FB PUSH2 0xD60 JUMP JUMPDEST SWAP1 POP PUSH1 0x20 MUL DUP2 ADD SWAP1 PUSH2 0x90D SWAP2 SWAP1 PUSH2 0xE42 JUMP JUMPDEST SWAP3 POP PUSH2 0x91C PUSH1 0x20 DUP5 ADD DUP5 PUSH2 0xCE2 JUMP JUMPDEST PUSH20 0xFFFFFFFFFFFFFFFFFFFFFFFFFFFFFFFFFFFFFFFF AND PUSH2 0x93F PUSH1 0x20 DUP6 ADD DUP6 PUSH2 0xDCD JUMP JUMPDEST PUSH1 0x40 MLOAD PUSH2 0x94D SWAP3 SWAP2 SWAP1 PUSH2 0xE32 JUMP JUMPDEST PUSH1 0x0 PUSH1 0x40 MLOAD DUP1 DUP4 SUB DUP2 PUSH1 0x0 DUP7 GAS CALL SWAP2 POP POP RETURNDATASIZE DUP1 PUSH1 0x0 DUP2 EQ PUSH2 0x98A JUMPI PUSH1 0x40 MLOAD SWAP2 POP PUSH1 0x1F NOT PUSH1 0x3F RETURNDATASIZE ADD AND DUP3 ADD PUSH1 0x40 MSTORE RETURNDATASIZE DUP3 MSTORE RETURNDATASIZE PUSH1 0x0 PUSH1 0x20 DUP5 ADD RETURNDATACOPY PUSH2 0x98F JUMP JUMPDEST PUSH1 0x60 SWAP2 POP JUMPDEST POP PUSH1 0x20 DUP4 ADD MSTORE ISZERO ISZERO DUP2 MSTORE DUP8 ISZERO PUSH2 0xA07 JUMPI DUP1 MLOAD PUSH2 0xA07 JUMPI PUSH1 0x40 MLOAD PUSH32 0x8C379A000000000000000000000000000000000000000000000000000000000 DUP2 MSTORE PUSH1 0x20 PUSH1 0x4 DUP3 ADD MSTORE PUSH1 0x17 PUSH1 0x24 DUP3 ADD MSTORE PUSH32 0x4D756C746963616C6C333A2063616C6C206661696C6564000000000000000000 PUSH1 0x44 DUP3 ADD MSTORE PUSH1 0x64 ADD PUSH2 0x4DD JUMP JUMPDEST POP PUSH1 0x1 ADD PUSH2 0x8C3 JUMP JUMPDEST POP POP POP SWAP4 SWAP3 POP POP POP JUMP JUMPDEST PUSH1 0x0 DUP1 PUSH1 0x60 PUSH2 0xA2B PUSH1 0x1 DUP7 DUP7 PUSH2 0x690 JUMP JUMPDEST SWAP2 SWAP8 SWAP1 SWAP7 POP SWAP1 SWAP5 POP SWAP3 POP POP POP JUMP JUMPDEST PUSH1 0x0 DUP1 DUP4 PUSH1 0x1F DUP5 ADD SLT PUSH2 0xA4B JUMPI PUSH1 0x0 DUP1 REVERT JUMPDEST POP DUP2 CALLDATALOAD PUSH8 0xFFFFFFFFFFFFFFFF DUP2 GT ISZERO PUSH2 0xA63 JUMPI PUSH1 0x0 DUP1 REVERT JUMPDEST PUSH1 0x20 DUP4 ADD SWAP2 POP DUP4 PUSH1 0x20 DUP3 PUSH1 0x5 SHL DUP6 ADD ADD GT ISZERO PUSH2 0xA7E JUMPI PUSH1 0x0 DUP1 REVERT JUMPDEST SWAP3 POP SWAP3 SWAP1 POP JUMP JUMPDEST PUSH1 0x0 DUP1 PUSH1 0x20 DUP4 DUP6 SUB SLT ISZERO PUSH2 0xA98 JUMPI PUSH1 0x0 DUP1 REVERT JUMPDEST DUP3 CALLDATALOAD PUSH8 0xFFFFFFFFFFFFFFFF DUP2 GT ISZERO PUSH2 0xAAF JUMPI PUSH1 0x0 DUP1 REVERT JUMPDEST PUSH2 0xABB DUP6 DUP3 DUP7 ADD PUSH2 0xA39 JUMP JUMPDEST SWAP1 SWAP7 SWAP1 SWAP6 POP SWAP4 POP POP POP POP JUMP JUMPDEST PUSH1 0x0 DUP2 MLOAD DUP1 DUP5 MSTORE PUSH1 0x0 JUMPDEST DUP2 DUP2 LT ISZERO PUSH2 0xAED JUMPI PUSH1 0x20 DUP2 DUP6 ADD DUP2 ADD MLOAD DUP7 DUP4 ADD DUP3 ADD MSTORE ADD PUSH2 0xAD1 JUMP JUMPDEST DUP2 DUP2 GT ISZERO PUSH2 0xAFF JUMPI PUSH1 0x0 PUSH1 0x20 DUP4 DUP8 ADD ADD MSTORE JUMPDEST POP PUSH1 0x1F ADD PUSH32 0xFFFFFFFFFFFFFFFFFFFFFFFFFFFFFFFFFFFFFFFFFFFFFFFFFFFFFFFFFFFFFFE0 AND SWAP3 SWAP1 SWAP3 ADD PUSH1 0x20 ADD SWAP3 SWAP2 POP POP JUMP JUMPDEST PUSH1 0x0 DUP3 DUP3 MLOAD DUP1 DUP6 MSTORE PUSH1 0x20 DUP1 DUP7 ADD SWAP6 POP DUP1 DUP3 PUSH1 0x5 SHL DUP5 ADD ADD DUP2 DUP7 ADD PUSH1 0x0 JUMPDEST DUP5 DUP2 LT ISZERO PUSH2 0xBB1 JUMPI DUP6 DUP4 SUB PUSH32 0xFFFFFFFFFFFFFFFFFFFFFFFFFFFFFFFFFFFFFFFFFFFFFFFFFFFFFFFFFFFFFFE0 ADD DUP10 MSTORE DUP2 MLOAD DUP1 MLOAD ISZERO ISZERO DUP5 MSTORE DUP5 ADD MLOAD PUSH1 0x40 DUP6 DUP6 ADD DUP2 SWAP1 MSTORE PUSH2 0xB9D DUP2 DUP7 ADD DUP4 PUSH2 0xAC7 JUMP JUMPDEST SWAP11 DUP7 ADD SWAP11 SWAP5 POP POP POP SWAP1 DUP4 ADD SWAP1 PUSH1 0x1 ADD PUSH2 0xB4F JUMP JUMPDEST POP SWAP1 SWAP8 SWAP7 POP POP POP POP POP POP POP JUMP JUMPDEST PUSH1 0x20 DUP2 MSTORE PUSH1 0x0 PUSH2 0xBD1 PUSH1 0x20 DUP4 ADD DUP5 PUSH2 0xB32 JUMP JUMPDEST SWAP4 SWAP3 POP POP POP JUMP JUMPDEST PUSH1 0x0 PUSH1 0x40 DUP3 ADD DUP5 DUP4 MSTORE PUSH1 0x20 PUSH1 0x40 DUP2 DUP6 ADD MSTORE DUP2 DUP6 MLOAD DUP1 DUP5 MSTORE PUSH1 0x60 DUP7 ADD SWAP2 POP PUSH1 0x60 DUP2 PUSH1 0x5 SHL DUP8 ADD ADD SWAP4 POP DUP3 DUP8 ADD PUSH1 0x0 JUMPDEST DUP3 DUP2 LT ISZERO PUSH2 0xC52 JUMPI PUSH32 0xFFFFFFFFFFFFFFFFFFFFFFFFFFFFFFFFFFFFFFFFFFFFFFFFFFFFFFFFFFFFFFA0 DUP9 DUP8 SUB ADD DUP5 MSTORE PUSH2 0xC40 DUP7 DUP4 MLOAD PUSH2 0xAC7 JUMP JUMPDEST SWAP6 POP SWAP3 DUP5 ADD SWAP3 SWAP1 DUP5 ADD SWAP1 PUSH1 0x1 ADD PUSH2 0xC06 JUMP JUMPDEST POP SWAP4 SWAP9 SWAP8 POP POP POP POP POP POP POP POP JUMP JUMPDEST PUSH1 0x0 DUP1 PUSH1 0x0 PUSH1 0x40 DUP5 DUP7 SUB SLT ISZERO PUSH2 0xC75 JUMPI PUSH1 0x0 DUP1 REVERT JUMPDEST DUP4 CALLDATALOAD DUP1 ISZERO ISZERO DUP2 EQ PUSH2 0xC85 JUMPI PUSH1 0x0 DUP1 REVERT JUMPDEST SWAP3 POP PUSH1 0x20 DUP5 ADD CALLDATALOAD PUSH8 0xFFFFFFFFFFFFFFFF DUP2 GT ISZERO PUSH2 0xCA1 JUMPI PUSH1 0x0 DUP1 REVERT JUMPDEST PUSH2 0xCAD DUP7 DUP3 DUP8 ADD PUSH2 0xA39 JUMP JUMPDEST SWAP5 SWAP8 SWAP1 SWAP7 POP SWAP4 SWAP5 POP POP POP POP JUMP JUMPDEST DUP4 DUP2 MSTORE DUP3 PUSH1 0x20 DUP3 ADD MSTORE PUSH1 0x60 PUSH1 0x40 DUP3 ADD MSTORE PUSH1 0x0 PUSH2 0xCD9 PUSH1 0x60 DUP4 ADD DUP5 PUSH2 0xB32 JUMP JUMPDEST SWAP6 SWAP5 POP POP POP POP POP JUMP JUMPDEST PUSH1 0x0 PUSH1 0x20 DUP3 DUP5 SUB SLT ISZERO PUSH2 0xCF4 JUMPI PUSH1 0x0 DUP1 REVERT JUMPDEST DUP2 CALLDATALOAD PUSH20 0xFFFFFFFFFFFFFFFFFFFFFFFFFFFFFFFFFFFFFFFF DUP2 AND DUP2 EQ PUSH2 0xBD1 JUMPI PUSH1 0x0 DUP1 REVERT JUMPDEST PUSH1 0x0 PUSH1 0x20 DUP3 DUP5 SUB SLT ISZERO PUSH2 0xD2A JUMPI PUSH1 0x0 DUP1 REVERT JUMPDEST POP CALLDATALOAD SWAP2 SWAP1 POP JUMP JUMPDEST PUSH32 0x4E487B7100000000000000000000000000000000000000000000000000000000 PUSH1 0x0 MSTORE PUSH1 0x41 PUSH1 0x4 MSTORE PUSH1 0x24 PUSH1 0x0 REVERT JUMPDEST PUSH32 0x4E487B7100000000000000000000000000000000000000000000000000000000 PUSH1 0x0 MSTORE PUSH1 0x32 PUSH1 0x4 MSTORE PUSH1 0x24 PUSH1 0x0 REVERT JUMPDEST PUSH1 0x0 DUP3 CALLDATALOAD PUSH32 0xFFFFFFFFFFFFFFFFFFFFFFFFFFFFFFFFFFFFFFFFFFFFFFFFFFFFFFFFFFFFFF81 DUP4 CALLDATASIZE SUB ADD DUP2 SLT PUSH2 0xDC3 JUMPI PUSH1 0x0 DUP1 REVERT JUMPDEST SWAP2 SWAP1 SWAP2 ADD SWAP3 SWAP2 POP POP JUMP JUMPDEST PUSH1 0x0 DUP1 DUP4 CALLDATALOAD PUSH32 0xFFFFFFFFFFFFFFFFFFFFFFFFFFFFFFFFFFFFFFFFFFFFFFFFFFFFFFFFFFFFFFE1 DUP5 CALLDATASIZE SUB ADD DUP2 SLT PUSH2 0xE02 JUMPI PUSH1 0x0 DUP1 REVERT JUMPDEST DUP4 ADD DUP1 CALLDATALOAD SWAP2 POP PUSH8 0xFFFFFFFFFFFFFFFF DUP3 GT ISZERO PUSH2 0xE1D JUMPI PUSH1 0x0 DUP1 REVERT JUMPDEST PUSH1 0x20 ADD SWAP2 POP CALLDATASIZE DUP2 SWAP1 SUB DUP3 SGT ISZERO PUSH2 0xA7E JUMPI PUSH1 0x0 DUP1 REVERT JUMPDEST DUP2 DUP4 DUP3 CALLDATACOPY PUSH1 0x0 SWAP2 ADD SWAP1 DUP2 MSTORE SWAP2 SWAP1 POP JUMP JUMPDEST PUSH1 0x0 DUP3 CALLDATALOAD PUSH32 0xFFFFFFFFFFFFFFFFFFFFFFFFFFFFFFFFFFFFFFFFFFFFFFFFFFFFFFFFFFFFFFC1 DUP4 CALLDATASIZE SUB ADD DUP2 SLT PUSH2 0xDC3 JUMPI PUSH1 0x0 DUP1 REVERT JUMPDEST PUSH1 0x0 DUP3 CALLDATALOAD PUSH32 0xFFFFFFFFFFFFFFFFFFFFFFFFFFFFFFFFFFFFFFFFFFFFFFFFFFFFFFFFFFFFFFA1 DUP4 CALLDATASIZE SUB ADD DUP2 SLT PUSH2 0xDC3 JUMPI PUSH1 0x0 DUP1 REVERT INVALID LOG2 PUSH5 0x6970667358 0x22 SLT KECCAK256 0x4B RETURN 0xB9 PUSH14 0x7F294CB68D6292466DBA5C4D9104 LOG4 0xC9 SWAP11 0xC3 PUSH2 0x5F76 PUSH19 0xB2D839947E0E64736F6C634300080C00330000 "
				},
				"gasEstimates": {
					"creation": {
						"codeDepositCost": "761600",
						"executionCost": "792",
						"totalCost": "762392"
					},
					"external": {
						"aggregate((address,bytes)[])": "infinite",
						"aggregate3((address,bool,bytes)[])": "infinite",
						"aggregate3Value((address,bool,uint256,bytes)[])": "infinite",
						"blockAndAggregate((address,bytes)[])": "infinite",
						"getBasefee()": "247",
						"getBlockHash(uint256)": "366",
						"getBlockNumber()": "269",
						"getChainId()": "203",
						"getCurrentBlockCoinbase()": "198",
						"getCurrentBlockDifficulty()": "225",
						"getCurrentBlockGasLimit()": "269",
						"getCurrentBlockTimestamp()": "193",
						"getEthBalance(address)": "2921",
						"getLastBlockHash()": "296",
						"tryAggregate(bool,(address,bytes)[])": "infinite",
						"tryBlockAndAggregate(bool,(address,bytes)[])": "infinite"
					}
				},
				"methodIdentifiers": {
					"aggregate((address,bytes)[])": "252dba42",
					"aggregate3((address,bool,bytes)[])": "82ad56cb",
					"aggregate3Value((address,bool,uint256,bytes)[])": "174dea71",
					"blockAndAggregate((address,bytes)[])": "c3077fa9",
					"getBasefee()": "3e64a696",
					"getBlockHash(uint256)": "ee82ac5e",
					"getBlockNumber()": "42cbb15c",
					"getChainId()": "3408e470",
					"getCurrentBlockCoinbase()": "a8b0574e",
					"getCurrentBlockDifficulty()": "72425d9d",
					"getCurrentBlockGasLimit()": "86d516e8",
					"getCurrentBlockTimestamp()": "0f28c97d",
					"getEthBalance(address)": "4d2301cc",
					"getLastBlockHash()": "27e86d6e",
					"tryAggregate(bool,(address,bytes)[])": "bce38bd7",
					"tryBlockAndAggregate(bool,(address,bytes)[])": "399542e9"
				}
			},
			"storageLayout": {
				"storage": [],
				"types": null
			},
			"userdoc": {
				"kind": "user",
				"methods": {
					"aggregate((address,bytes)[])": {
						"notice": "Backwards-compatible call aggregation with Multicall"
					},
					"aggregate3((address,bool,bytes)[])": {
						"notice": "Aggregate calls, ensuring each returns success if required"
					},
					"aggregate3Value((address,bool,uint256,bytes)[])": {
						"notice": "Aggregate calls with a msg valueReverts if msg.value is less than the sum of the call values"
					},
					"blockAndAggregate((address,bytes)[])": {
						"notice": "Backwards-compatible with Multicall2Aggregate calls and allow failures using tryAggregate"
					},
					"getBasefee()": {
						"notice": "Gets the base fee of the given blockCan revert if the BASEFEE opcode is not implemented by the given chain"
					},
					"getBlockHash(uint256)": {
						"notice": "Returns the block hash for the given block number"
					},
					"getBlockNumber()": {
						"notice": "Returns the block number"
					},
					"getChainId()": {
						"notice": "Returns the chain id"
					},
					"getCurrentBlockCoinbase()": {
						"notice": "Returns the block coinbase"
					},
					"getCurrentBlockDifficulty()": {
						"notice": "Returns the block difficulty"
					},
					"getCurrentBlockGasLimit()": {
						"notice": "Returns the block gas limit"
					},
					"getCurrentBlockTimestamp()": {
						"notice": "Returns the block timestamp"
					},
					"getEthBalance(address)": {
						"notice": "Returns the (ETH) balance of a given address"
					},
					"getLastBlockHash()": {
						"notice": "Returns the block hash of the last block"
					},
					"tryAggregate(bool,(address,bytes)[])": {
						"notice": "Backwards-compatible with Multicall2Aggregate calls without requiring success"
					},
					"tryBlockAndAggregate(bool,(address,bytes)[])": {
						"notice": "Backwards-compatible with Multicall2Aggregate calls and allow failures using tryAggregate"
					}
				},
				"notice": "Aggregate results from multiple function calls",
				"version": 1
			}
		}
	}
}